:100000000C9435000C945D000C945D000C945D0024
:100010000C945D000C945D000C945D000C945D00EC
:100020000C945D000C945D000C945D000C945D00DC
:100030000C945D000C94C9030C945D000C945D005D
:100040000C9444030C945D000C94C0010C94F201D8
:100050000C945D000C945D000C945D000C945D00AC
:100060000C945D000C945D00180211241FBECFEFAC
:10007000D8E0DEBFCDBF11E0A0E0B1E0EAEBF9E0EF
:1000800002C005900D92A232B107D9F721E0A2E299
:10009000B1E001C01D92A73EB207E1F710E0C5E351
:1000A000D0E004C02197FE010E94D504C433D107DB
:1000B000C9F70E945F000C94DB040C9400000E94BE
:1000C0008E0326E040E855E260E070E084E291E0D3
:1000D0000E945B0160E070E08AEC91E00E945F04A6
:1000E00060912201709123014AE050E084E291E0A6
:1000F0000E942D038AEC91E00E9417046091220176
:10010000709123018AEC91E00E94FE038AEC91E059
:100110000E94290480912201909123010196833E3F
:1001200024E092072CF4909323018093220104C0D1
:1001300010922301109222018FE19EE40197F1F7C2
:1001400000C00000CDCFFC01918D228D892F90E061
:10015000805C9F4F821B91098F7399270895FC0142
:10016000918D828D981731F0828DE80FF11D858D6C
:1001700090E008958FEF9FEF0895FC01918D828D9F
:10018000981761F0828DDF01A80FB11D5D968C91EB
:10019000928D9F5F9F73928F90E008958FEF9FEFF6
:1001A0000895FC01848DDF01A80FB11DA35ABF4F34
:1001B0002C91848D90E001968F739927848FA68966
:1001C000B7892C93A089B1898C9180648C93938D8D
:1001D000848D981306C00288F389E02D80818F7D7D
:1001E00080830895CF93DF93EC01888D8823C9F035
:1001F000EA89FB89808185FD05C0A889B9898C9130
:1002000086FD0FC00FB607FCF5CF808185FFF2CFCA
:10021000A889B9898C9185FFEDCFCE010E94D100CC
:10022000E7CFDF91CF910895EF92FF920F931F9345
:10023000CF93DF93EC0181E0888F9B8D8C8D981399
:1002400005C0E889F989808185FD24C0F62E0B8DD3
:1002500010E00F5F1F4F0F731127E02E8C8DE812F7
:100260000CC00FB607FCFACFE889F989808185FFB9
:10027000F5CFCE010E94D100F1CF8B8DFE01E80FAA
:10028000F11DE35AFF4FF0820B8FEA89FB898081D1
:10029000806207C0EE89FF896083E889F9898081DF
:1002A0008064808381E090E0DF91CF911F910F9176
:1002B000FF90EF900895CF92DF92EF92FF921F93FD
:1002C000CF93DF93EC016A017B01122FE889F98952
:1002D00082E080834115514E61057105B1F060E007
:1002E00079E08DE390E0A70196010E94B304DA0162
:1002F000C9010197A109B109B695A7959795879569
:10030000AC01411580E15807A8F0E889F98910820D
:1003100060E874E88EE190E0A70196010E94B304C2
:10032000BA01A90141505109610971097695679592
:1003300057954795EC85FD855083EE85FF85408375
:10034000188EEC89FD891083EA89FB8980818061A0
:100350008083EA89FB89808188608083EA89FB89C0
:10036000808180688083EA89FB8980818F7D80839A
:10037000DF91CF911F91FF90EF90DF90CF90089584
:100380001F920F920FB60F9211242F938F939F936A
:10039000EF93FF93E0913401F09135018081E0917A
:1003A0003A01F0913B0182FD12C0908180913D01A4
:1003B0008F5F8F7320913E01821751F0E0913D01D4
:1003C000F0E0EC5DFE4F958F80933D0101C0808190
:1003D000FF91EF919F918F912F910F900FBE0F90F2
:1003E0001F9018951F920F920FB60F9211242F9302
:1003F0003F934F935F936F937F938F939F93AF93AD
:10040000BF93EF93FF9384E291E00E94D100FF91AC
:10041000EF91BF91AF919F918F917F916F915F917C
:100420004F913F912F910F900FBE0F901F901895F5
:10043000E4E2F1E01382128288EE93E0A0E0B0E003
:1004400084839583A683B78384E091E0918380833E
:1004500085EC90E09587848784EC90E09787868789
:1004600080EC90E0918B808B81EC90E0938B828B81
:1004700082EC90E0958B848B86EC90E0978B868B5A
:10048000118E128E138E148E0895CF92DF92EF92FA
:10049000FF920F931F93CF93DF936C01EB017B01CE
:1004A000E40EF51E00E010E0CE15DF0561F0699165
:1004B000D601ED91FC910190F081E02DC6010995E6
:1004C000080F191FF1CFC801DF91CF911F910F9134
:1004D000FF90EF90DF90CF9008956115710579F04E
:1004E000FB0101900020E9F73197AF01461B570B44
:1004F000DC01ED91FC910280F381E02D099480E014
:1005000090E00895DC01ED91FC910190F081E02DE7
:10051000099460E171E00C946D028F929F92AF920A
:10052000BF92CF92DF92EF92FF920F931F93CF93E0
:10053000DF93CDB7DEB7A1970FB6F894DEBF0FBE3D
:10054000CDBF6C01142FE52FCB01022F19A2223051
:1005500008F40AE07E0121E2E20EF11C802E912CCB
:10056000A12CB12C612F7E2FA50194010E94B30410
:10057000029F1019112481E0E81AF1081A3010F4D2
:10058000105D01C0195CF7011083122FE32FCA011F
:10059000232B242B252B31F7B701C6010E946D02B6
:1005A000A1960FB6F894DEBF0FBECDBFDF91CF91FD
:1005B0001F910F91FF90EF90DF90CF90BF90AF9081
:1005C0009F908F900895CF92DF92EF92FF920F93BA
:1005D0001F93CF93DF93EC016A017B012115310555
:1005E00079F4E881F9810190F081E02D642FDF91A9
:1005F000CF911F910F91FF90EF90DF90CF900994D2
:100600002A303105E9F477FF1AC06DE20E948202B8
:100610008C0144275527BA014C195D096E097F09E1
:100620002AE0CE010E948D02800F911FDF91CF91B1
:100630001F910F91FF90EF90DF90CF9008952AE0E7
:10064000B701A601CE01DF91CF911F910F91FF90CD
:10065000EF90DF90CF900C948D020F931F93CF9368
:10066000DF93EC019A01AB01770F660B770B0E94C9
:10067000E3028C01CE010E948902800F911FDF915D
:10068000CF911F910F9108951F920F920FB60F9265
:1006900011242F933F938F939F93AF93BF93809198
:1006A000C2019091C301A091C401B091C5013091E4
:1006B000C10123E0230F2D3720F40196A11DB11DA8
:1006C00005C026E8230F0296A11DB11D2093C1018C
:1006D0008093C2019093C301A093C401B093C5015C
:1006E0008091C6019091C701A091C801B091C90144
:1006F0000196A11DB11D8093C6019093C701A093DF
:10070000C801B093C901BF91AF919F918F913F9163
:100710002F910F900FBE0F901F901895789484B56D
:10072000826084BD84B5816084BD85B5826085BDED
:1007300085B5816085BDEEE6F0E0808181608083D3
:10074000E1E8F0E0108280818260808380818160B6
:100750008083E0E8F0E0808181608083E1EBF0E07D
:10076000808184608083E0EBF0E080818160808321
:10077000EAE7F0E08081846080838081826080830A
:100780008081816080838081806880831092C10035
:1007900008951F920F920FB60F9211242F933F933B
:1007A0004F935F936F937F938F939F93AF93BF9379
:1007B000EF93FF9380E28093800010926F0010927D
:1007C000E6018091E4019091E501892B31F0789464
:1007D000E091E401F091E5010995FF91EF91BF915E
:1007E000AF919F918F917F916F915F914F913F91C9
:1007F0002F910F900FBE0F901F901895CB0124E002
:10080000969587952A95E1F7982F262F862F829522
:10081000807F872BECECF1E0908381833396DF01BE
:1008200011972C9331E0E43EF307B0F3089560E0B4
:1008300070E00C94FE03239A259A229A2D9881E069
:100840008DBD80E58CBD08958EBD0DB407FEFDCF36
:1008500008951F93CF93DF931091E601111129C0E2
:1008600080E2809380008091CB01882329F0109250
:10087000CB01CCECD1E003C02D9A2D98FACF888122
:100880000E94240489810E9424042396FE0131974A
:1008900080810E94240481E0C43ED80780F381E077
:1008A0008093E60190EA90938000B09A80936F0065
:1008B00001C011E0812FDF91CF911F9108950F9317
:1008C0001F93CF93DF9300D0CDB7DEB78C01219A71
:1008D000229A539A2A9A69837A830E941B04698117
:1008E0007A81C8010E94FE03C8010E942904E0E841
:1008F000F0E080E2808310926F001092E601299A66
:1009000029988083E1E8F0E080E1808381E090E055
:10091000909389008093880082E090E090938B0010
:1009200080938A0080E090E2909387008093860015
:1009300083E28093B000A1EBB0E088E08C9310924A
:10094000B40083E08093B3008C9181608C938081AC
:1009500081608083C8010F900F90DF91CF911F912C
:100960000F910C942904A1E21A2EAA1BBB1BFD01B6
:100970000DC0AA1FBB1FEE1FFF1FA217B307E4077E
:10098000F50720F0A21BB30BE40BF50B661F771FD6
:10099000881F991F1A9469F76095709580959095B6
:1009A0009B01AC01BD01CF010895EE0FFF1F059023
:0A09B000F491E02D0994F894FFCFB4
:1009BA000000000014014502A300BD00AF00F200D0
:1009CA000D0A006E616E00696E66006F7666002E13
:0209DA0000001B
:00000001FF
