S01B00004350453332395F46696E616C50726F6A6563742E7372656373
S11300000C9435000C945D000C945D000C945D0020
S11300100C945D000C945D000C945D000C945D00E8
S11300200C945D000C945D000C945D000C945D00D8
S11300300C945D000C9434040C945D000C945D00ED
S11300400C94AF030C945D000C942B020C945D0291
S11300500C945D000C945D000C945D000C945D00A8
S11300600C945D000C945D00830211241FBECFEF3D
S1130070D8E0DEBFCDBF11E0A0E0B1E0EEE1FBE0EF
S113008002C005900D92A832B107D9F721E0A8E289
S1130090B1E001C01D92A13FB207E1F710E0C5E352
S11300A0D0E004C02197FE010E948705C433D10724
S11300B0C9F70E945F000C948D050C9400000E9407
S11300C0F90326E040E855E260E070E08EE291E05A
S11300D00E94C60160E070E084ED91E00E94E904B2
S11300E0809100019091010197FD16C040E050E01D
S11300F060E070E00E94AB008091000190910101EA
S1130100019790930101809300018FE19EE4019790
S1130110F1F700C00000E4CF80E090E00E94C4004A
S1130120C1E7D2E00E94D20040E050E060E070E01D
S113013080910001909101010E94C9008091000109
S1130140909101010196BE010E943D059093010129
S113015080930001E7CFCF93DF93EC014AE050E0B6
S1130160BC018EE291E00E94980384ED91E00E942C
S1130170A104BE0184ED91E00E94880484ED91E025
S1130180DF91CF910C94B304909305018093040103
S11301900895E8E2F1E09183808373836283558359
S11301A044830895809102019091030197FF08C050
S11301B080910401909105019093030180930201C1
S11301C04AE050E062EE74E08EE291E00E9498030F
S11301D084ED91E00E94A1046091280170912901AD
S11301E084ED91E00E94880442EE54E060910201A3
S11301F084ED91E00E94690484ED91E00E94B304CF
S11302008091020190910301019760E170E00E94E6
S11302103D0590930301809302010895FC01918DA3
S1130220228D892F90E0805C9F4F821B91098F73F0
S113023099270895FC01918D828D981731F0828D54
S1130240E80FF11D858D90E008958FEF9FEF0895DD
S1130250FC01918D828D981761F0828DDF01A80FCA
S1130260B11D5D968C91928D9F5F9F73928F90E0EC
S113027008958FEF9FEF0895FC01848DDF01A80F8F
S1130280B11DA35ABF4F2C91848D90E001968F73BA
S11302909927848FA689B7892C93A089B1898C91D9
S11302A080648C93938D848D981306C00288F3899F
S11302B0E02D80818F7D80830895CF93DF93EC01BF
S11302C0888D8823C9F0EA89FB89808185FD05C072
S11302D0A889B9898C9186FD0FC00FB607FCF5CFAC
S11302E0808185FFF2CFA889B9898C9185FFEDCFF4
S11302F0CE010E943C01E7CFDF91CF910895EF92A8
S1130300FF920F931F93CF93DF93EC0181E0888FCB
S11303109B8D8C8D981305C0E889F989808185FDB2
S113032024C0F62E0B8D10E00F5F1F4F0F731127A3
S1130330E02E8C8DE8120CC00FB607FCFACFE889CA
S1130340F989808185FFF5CFCE010E943C01F1CF70
S11303508B8DFE01E80FF11DE35AFF4FF0820B8FE6
S1130360EA89FB898081806207C0EE89FF89608306
S1130370E889F98980818064808381E090E0DF915D
S1130380CF911F910F91FF90EF900895CF92DF923C
S1130390EF92FF921F93CF93DF93EC016A017B01ED
S11303A0122FE889F98982E080834115514E610555
S11303B07105B1F060E079E08DE390E0A70196016A
S11303C00E945105DA01C9010197A109B109B69545
S11303D0A79597958795AC01411580E15807A8F03A
S11303E0E889F989108260E874E88EE190E0A70159
S11303F096010E945105BA01A901415051096109B0
S113040071097695679557954795EC85FD855083D9
S1130410EE85FF854083188EEC89FD891083EA8977
S1130420FB89808180618083EA89FB89808188607F
S11304308083EA89FB89808180688083EA89FB89DB
S113044080818F7D8083DF91CF911F91FF90EF900A
S1130450DF90CF9008951F920F920FB60F92112440
S11304602F938F939F93EF93FF93E0913E01F0912D
S11304703F018081E0914401F091450182FD12C069
S11304809081809147018F5F8F732091480182177B
S113049051F0E0914701F0E0E25DFE4F958F8093CB
S11304A0470101C08081FF91EF919F918F912F911E
S11304B00F900FBE0F901F9018951F920F920FB6BA
S11304C00F9211242F933F934F935F936F937F93D6
S11304D08F939F93AF93BF93EF93FF938EE291E03B
S11304E00E943C01FF91EF91BF91AF919F918F9139
S11304F07F916F915F914F913F912F910F900FBE1C
S11305000F901F901895EEE2F1E01382128288EEAC
S113051093E0A0E0B0E084839583A683B7838AE068
S113052091E09183808385EC90E09587848784ECC7
S113053090E09787868780EC90E0918B808B81ECAC
S113054090E0938B828B82EC90E0958B848B86EC8D
S113055090E0978B868B118E128E138E148E0895D5
S1130560CF92DF92EF92FF920F931F93CF93DF937B
S11305706C01EB017B01E40EF51E00E010E0CE15EA
S1130580DF0561F06991D601ED91FC910190F08154
S1130590E02DC6010995080F191FF1CFC801DF919D
S11305A0CF911F910F91FF90EF90DF90CF9008951E
S11305B06115710579F0FB0101900020E9F731978D
S11305C0AF01461B570BDC01ED91FC910280F381D6
S11305D0E02D099480E090E00895DC01ED91FC9118
S11305E00190F081E02D099466E171E00C94D80249
S11305F08F929F92AF92BF92CF92DF92EF92FF922F
S11306000F931F93CF93DF93CDB7DEB7A1970FB6A8
S1130610F894DEBF0FBECDBF6C01142FE52FCB01C4
S1130620022F19A2223008F40AE07E0121E2E20E30
S1130630F11C802E912CA12CB12C612F7E2FA501B1
S113064094010E945105029F1019112481E0E81AB7
S1130650F1081A3010F4105D01C0195CF701108321
S1130660122FE32FCA01232B242B252B31F7B7019B
S1130670C6010E94D802A1960FB6F894DEBF0FBE41
S1130680CDBFDF91CF911F910F91FF90EF90DF903D
S1130690CF90BF90AF909F908F900895CF92DF92AC
S11306A0EF92FF920F931F93CF93DF93EC016A01B4
S11306B07B012115310579F4E881F9810190F081FC
S11306C0E02D642FDF91CF911F910F91FF90EF9058
S11306D0DF90CF9009942A303105E9F477FF1AC0EE
S11306E06DE20E94ED028C0144275527BA014C1992
S11306F05D096E097F092AE0CE010E94F802800F8D
S1130700911FDF91CF911F910F91FF90EF90DF9098
S1130710CF9008952AE0B701A601CE01DF91CF91D1
S11307201F910F91FF90EF90DF90CF900C94F802FF
S11307300F931F93CF93DF93EC019A01AB01770FD3
S1130740660B770B0E944E038C01CE010E94F402CB
S1130750800F911FDF91CF911F910F9108951F92E8
S11307600F920FB60F9211242F933F938F939F9361
S1130770AF93BF938091CC019091CD01A091CE0114
S1130780B091CF013091CB0123E0230F2D3720F41A
S11307900196A11DB11D05C026E8230F0296A11DD7
S11307A0B11D2093CB018093CC019093CD01A093F4
S11307B0CE01B093CF018091D0019091D101A0914D
S11307C0D201B091D3010196A11DB11D8093D00136
S11307D09093D101A093D201B093D301BF91AF9173
S11307E09F918F913F912F910F900FBE0F901F906B
S11307F01895789484B5826084BD84B5816084BD85
S113080085B5826085BD85B5816085BDEEE6F0E085
S1130810808181608083E1E8F0E0108280818260E1
S11308208083808181608083E0E8F0E08081816062
S11308308083E1EBF0E0808184608083E0EBF0E092
S1130840808181608083EAE7F0E080818460808336
S113085080818260808380818160808380818068E0
S113086080831092C10008951F920F920FB60F92C9
S113087011242F933F934F935F936F937F938F93A1
S11308809F93AF93BF93EF93FF9380E28093800095
S113089010926F001092F0018091EE019091EF019F
S11308A0892B31F07894E091EE01F091EF010995F4
S11308B0FF91EF91BF91AF919F918F917F916F9134
S11308C05F914F913F912F910F900FBE0F901F900A
S11308D018958FE0861B93E0899FF0011124F6950B
S11308E0E795EA52FE4F80FF05C08081807F852B0B
S11308F080830CC0CA0124E0969587952A95E1F778
S1130900808381818F704295407F482B4183089575
S1130910CB0124E0969587952A95E1F7982F262F09
S1130920862F8295807F872BE6EDF1E0908381838B
S11309303396DF0111972C9331E0EE3EF307B0F3C9
S1130940089560E070E00C948804239A259A229A12
S11309502D9881E08DBD80E58CBD08958EBD0DB4CC
S113096007FEFDCF08951F93CF93DF931091F001FD
S1130970111129C080E2809380008091D5018823E1
S113098029F01092D501C6EDD1E003C02D9A2D981F
S1130990FACF88810E94AE0489810E94AE04239616
S11309A0FE01319780810E94AE0481E0CE3ED807DB
S11309B080F381E08093F00190EA90938000B09AF4
S11309C080936F0001C011E0812FDF91CF911F91BF
S11309D008950F931F93CF93DF9300D0CDB7DEB765
S11309E08C01219A229A539A2A9A69837A830E94C3
S11309F0A50469817A81C8010E948804C8010E9403
S1130A00B304E0E8F0E080E2808310926F0010927B
S1130A10F001299A29988083E1E8F0E080E180835D
S1130A2081E090E0909389008093880082E090E0D8
S1130A3090938B0080938A0080E090E290938700EB
S1130A408093860083E28093B000A1EBB0E088E05D
S1130A508C931092B40083E08093B3008C918160F6
S1130A608C93808181608083C8010F900F90DF9107
S1130A70CF911F910F910C94B30497FB072E16F49A
S1130A80009407D077FD09D00E94730507FC05D0B8
S1130A903EF4909581959F4F0895709561957F4F91
S1130AA00895A1E21A2EAA1BBB1BFD010DC0AA1FAB
S1130AB0BB1FEE1FFF1FA217B307E407F50720F0C3
S1130AC0A21BB30BE40BF50B661F771F881F991F3E
S1130AD01A9469F760957095809590959B01AC0187
S1130AE0BD01CF010895AA1BBB1B51E107C0AA1F7A
S1130AF0BB1FA617B70710F0A61BB70B881F991FBB
S1130B005A95A9F780959095BC01CD010895EE0FF3
S1110B10FF1F0590F491E02D0994F894FFCF97
S1130B1EE204FFFFFFFF000000007F01B0020E01A0
S1130B2E28011A015D010D0A006E616E00696E6680
S10B0B3E006F7666002E000032
S9030000FC
