:100000000C9436000C945E000C945E000C94E0009E
:100010000C94F5000C940A010C945E000C945E00A4
:100020000C945E000C945E000C945E000C945E00D8
:100030000C945E000C9499040C94A8000C945E003F
:100040000C9414040C945E000C946D020C949F02AA
:100050000C945E000C945E000C945E000C945E00A8
:100060000C945E000C945E004B02C50211241FBE6E
:10007000CFEFD8E0DEBFCDBF11E0A0E0B1E0E0E21D
:10008000FDE002C005900D92AC34B107D9F722E033
:10009000ACE4B1E001C01D92A132B207E1F710E07B
:1000A000C6E3D0E004C02197FE010E948806C43355
:1000B000D107C9F70E9460000C948E060C940000D2
:1000C0002FEF81EE94E0215080409040E1F700C096
:1000D00000000E945E0460E070E084E092E00E9414
:1000E0004E050E944F020E9456020E945F027894C1
:1000F000809100019091010197FD16C040E050E011
:1001000060E070E00E94D7018091000190910101B0
:10011000019790930101809300018FE19EE4019784
:10012000F1F700C00000E4CF80E090E00E941F01E2
:1001300068E978E080E090E00E9439029FEF21EECC
:1001400084E0915020408040E1F700C00000F0CFF3
:100150001F920F920FB60F9211242F938F939F939C
:10016000AF93BF9380914C0190914D01A0914E01AE
:10017000B0914F018C599F4FAF4FBF4F813422E454
:1001800092072FE0A207B10548F480934C019093A9
:100190004D01A0934E01B0934F0108C010924C0145
:1001A00010924D0110924E0110924F01BF91AF91EC
:1001B0009F918F912F910F900FBE0F901F901895C8
:1001C0001F920F920FB60F9211248F9386B5109243
:1001D0004C0110924D0110924E0110924F018F91DF
:1001E0000F900FBE0F901F9018951F920F920FB691
:1001F0000F9211248F9386B510924C0110924D01ED
:1002000010924E0110924F018F910F900FBE0F90E0
:100210001F9018951F920F920FB60F9211248F9373
:1002200086B510924C0110924D0110924E01109221
:100230004F018F910F900FBE0F901F9018958093D4
:1002400029010895092E000CAA0BBB0B40915A01FD
:1002500050915B0160915C0170915D01841795077D
:10026000A607B70740F4209151012F5F2093510159
:100270001092500107C0209150012F5F2093500130
:1002800010925101209150012A3048F010925001F3
:1002900020915901222319F02150209359012091D6
:1002A00051012A3048F010925101209159012F300C
:1002B00018F42F5F2093590180935A0190935B01AA
:1002C000A0935C01B0935D0108950F931F93CF93AA
:1002D000DF9300D000D000D0CDB7DEB729833A83BA
:1002E0004B835C836D837E838C01000F111F080F8D
:1002F000191F49815A81602F84E092E00E94CE0448
:100300004B815C8161E0600F84E092E00E94CE044A
:100310004D815E8162E0600F84E092E026960FB628
:10032000F894DEBF0FBECDBFDF91CF911F910F912B
:100330000C94CE040F931F93CF93DF9300D000D083
:1003400000D0CDB7DEB749835A836B837C838D831E
:100350009E8369817A814AE050E08EE591E00E94B7
:10036000FE0384E092E00E94060500E010E0809128
:10037000580190E00817190764F429813A814B81EC
:100380005C816D817E81C8010E9465010F5F1F4FF6
:10039000EECF84E092E026960FB6F894DEBF0FBE53
:1003A000CDBFDF91CF911F910F910C941805CF9382
:1003B000DF9300D000D000D0CDB7DEB7382F842F28
:1003C000432F5E83592F9E810E949A0126960FB675
:1003D000F894DEBF0FBECDBFDF91CF910895CF93CC
:1003E000DF934AE050E062EE74E08EE591E00E9417
:1003F000DA0384E092E00E940605C0E0D0E080913C
:10040000580190E0C817D90724F58091280190E0A1
:10041000C817D90769F42091020130910301409176
:1004200004015091050160910601709107010CC013
:100430002091520130915301409154015091550146
:100440006091560170915701CE010E94650121967D
:10045000D6CF84E092E00E941805809128018F5F3A
:10046000609158010E945A0690932801DF91CF9124
:100470000895CB010E942201E0915901F0E0EE0FB6
:10048000FF1FE85FFE4F808191819093030180936D
:1004900002010C94EF0185E0809358010895209AA1
:1004A000579A389A289A5F9A409A089582E084BDB4
:1004B00085BD98EC97BD80936E0085BB0895F89438
:1004C00087E08093680091E090936B0020E8209390
:1004D0006C0090936D008BBB08951F920F920FB626
:1004E0000F9211242F938F939F93EF93FF93E0919B
:1004F0006E01F0916F018081E0917401F0917501BE
:1005000082FD12C09081809177018F5F8F7320915F
:100510007801821751F0E0917701F0E0E25AFE4F46
:10052000958F8093770101C08081FF91EF919F911A
:100530008F912F910F900FBE0F901F9018951F92C3
:100540000F920FB60F9211242F933F934F935F9307
:100550006F937F938F939F93AF93BF93EF93FF938B
:100560008EE591E00E94D005FF91EF91BF91AF9190
:100570009F918F917F916F915F914F913F912F91BB
:100580000F900FBE0F901F901895EEE5F1E01382CB
:10059000128288EE93E0A0E0B0E084839583A68386
:1005A000B7838FE391E09183808385EC90E095871A
:1005B000848784EC90E09787868780EC90E0918B2D
:1005C000808B81EC90E0938B828B82EC90E0958B1A
:1005D000848B86EC90E0978B868B118E128E138E17
:1005E000148E0895CF92DF92EF92FF920F931F9394
:1005F000CF93DF936C01EB017B01E40EF51E00E06D
:1006000010E0CE15DF0561F06991D601ED91FC9106
:100610000190F081E02DC6010995080F191FF1CF57
:10062000C801DF91CF911F910F91FF90EF90DF9064
:10063000CF9008956115710579F0FB0101900020BC
:10064000E9F73197AF01461B570BDC01ED91FC91A7
:100650000280F381E02D099480E090E00895DC01B0
:10066000ED91FC910190F081E02D09946AE271E036
:100670000C941A038F929F92AF92BF92CF92DF9207
:10068000EF92FF920F931F93CF93DF93CDB7DEB717
:10069000A1970FB6F894DEBF0FBECDBF6C01142F2B
:1006A000E52FCB01022F19A2223008F40AE07E01C7
:1006B00021E2E20EF11C802E912CA12CB12C612F95
:1006C0007E2FA50194010E946606029F1019112435
:1006D00081E0E81AF1081A3010F4105D01C0195CCD
:1006E000F7011083122FE32FCA01232B242B252B74
:1006F00031F7B701C6010E941A03A1960FB6F8940C
:10070000DEBF0FBECDBFDF91CF911F910F91FF9044
:10071000EF90DF90CF90BF90AF909F908F90089513
:10072000CF92DF92EF92FF920F931F93CF93DF93BD
:10073000EC016A017B012115310579F4E881F98129
:100740000190F081E02D642FDF91CF911F910F91E7
:10075000FF90EF90DF90CF9009942A303105E9F4B3
:1007600077FF1AC06DE20E942F038C0144275527A2
:10077000BA014C195D096E097F092AE0CE010E9479
:100780003A03800F911FDF91CF911F910F91FF903E
:10079000EF90DF90CF9008952AE0B701A601CE0137
:1007A000DF91CF911F910F91FF90EF90DF90CF904D
:1007B0000C943A030F931F93CF93DF93EC019A01AC
:1007C000AB01770F660B770B0E9490038C01CE0173
:1007D0000E943603800F911FDF91CF911F910F91DF
:1007E00008952115310541F4DC01ED91FC91019052
:1007F000F081E02D642F09940C943A030F931F931A
:10080000CF93DF93EC019A01AB0160E070E00E94AE
:10081000F1038C01CE010E943603800F911FDF91FE
:10082000CF911F910F9108951F920F920FB60F92C3
:1008300011242F933F938F939F93AF93BF938091F6
:10084000FC019091FD01A091FE01B091FF0130915A
:10085000FB0123E0230F2D3720F40196A11DB11DCC
:1008600005C026E8230F0296A11DB11D2093FB01B0
:100870008093FC019093FD01A093FE01B093FF01D2
:100880008091000290910102A0910202B0910302B6
:100890000196A11DB11D8093000290930102A093C7
:1008A0000202B0930302BF91AF919F918F913F914C
:1008B0002F910F900FBE0F901F901895789484B5CC
:1008C000826084BD84B5816084BD85B5826085BD4C
:1008D00085B5816085BDEEE6F0E080818160808332
:1008E000E1E8F0E010828081826080838081816015
:1008F0008083E0E8F0E0808181608083E1EBF0E0DC
:10090000808184608083E0EBF0E08081816080837F
:10091000EAE7F0E080818460808380818260808368
:100920008081816080838081806880831092C10093
:1009300008951F920F920FB60F9211242F933F9399
:100940004F935F936F937F938F939F93AF93BF93D7
:10095000EF93FF9380E28093800010926F001092DB
:10096000200280911E0290911F02892B31F0789411
:10097000E0911E02F0911F020995FF91EF91BF9146
:10098000AF919F918F917F916F915F914F913F9127
:100990002F910F900FBE0F901F9018958FE0861B20
:1009A00093E0899FF0011124F695E795EA5FFD4FEA
:1009B00080FF05C08081807F852B80830CC0CA01A9
:1009C00024E0969587952A95E1F7808381818F7041
:1009D0004295407F482B41830895CB0124E09695B2
:1009E00087952A95E1F7982F262F862F8295807F6D
:1009F000872BE6E0F2E0908381833396DF01119745
:100A00002C9332E0EE31F307B0F3089560E070E02C
:100A10000C94ED04239A259A229A2D9881E08DBD9D
:100A200080E58CBD08958EBD0DB407FEFDCF089501
:100A30001F93CF93DF9310912002111129C080E200
:100A40008093800080910502882329F0109205028E
:100A5000C6E0D2E003C02D9A2D98FACF88810E947B
:100A6000130589810E9413052396FE013197808129
:100A70000E94130582E0CE31D80780F381E0809395
:100A8000200290EA90938000B09A80936F0001C09A
:100A900011E0812FDF91CF911F9108950F931F9344
:100AA000CF93DF9300D0CDB7DEB78C01219A229A85
:100AB000539A2A9A69837A830E940A0569817A8106
:100AC000C8010E94ED04C8010E941805E0E8F0E0AA
:100AD00080E2808310926F0010922002299A299858
:100AE0008083E1E8F0E080E1808381E090E0909312
:100AF00089008093880082E090E090938B0080933F
:100B00008A0080E090E2909387008093860083E2E1
:100B10008093B000A1EBB0E088E08C931092B40019
:100B200083E08093B3008C9181608C93808181609D
:100B30008083C8010F900F90DF91CF911F910F918B
:100B40000C941805FC01918D228D892F90E0805C1A
:100B50009F4F821B91098F7399270895FC01918DF6
:100B6000828D981731F0828DE80FF11D858D90E010
:100B700008958FEF9FEF0895FC01918D828D981756
:100B800061F0828DDF01A80FB11D5D968C91928D71
:100B90009F5F9F73928F90E008958FEF9FEF08956E
:100BA000FC01848DDF01A80FB11DA35ABF4F2C910A
:100BB000848D90E001968F739927848FA689B789D9
:100BC0002C93A089B1898C9180648C93938D848DB2
:100BD000981306C00288F389E02D80818F7D808381
:100BE0000895CF93DF93EC01888D8823C9F0EA89BB
:100BF000FB89808185FD05C0A889B9898C9186FD16
:100C00000FC00FB607FCF5CF808185FFF2CFA88912
:100C1000B9898C9185FFEDCFCE010E94D005E7CF39
:100C2000DF91CF910895EF92FF920F931F93CF938F
:100C3000DF93EC0181E0888F9B8D8C8D981305C02C
:100C4000E889F989808185FD24C0F62E0B8D10E09E
:100C50000F5F1F4F0F731127E02E8C8DE8120CC011
:100C60000FB607FCFACFE889F989808185FFF5CFB7
:100C7000CE010E94D005F1CF8B8DFE01E80FF11D52
:100C8000E35AFF4FF0820B8FEA89FB8980818062F3
:100C900007C0EE89FF896083E889F98980818064D3
:100CA000808381E090E0DF91CF911F910F91FF90C1
:100CB000EF900895991B79E004C0991F961708F0EA
:100CC000961B881F7A95C9F780950895A1E21A2E80
:100CD000AA1BBB1BFD010DC0AA1FBB1FEE1FFF1FE0
:100CE000A217B307E407F50720F0A21BB30BE40B30
:100CF000F50B661F771F881F991F1A9469F7609577
:100D00007095809590959B01AC01BD01CF01089530
:100D1000EE0FFF1F0590F491E02D0994F894FFCF9A
:100D2000E204E2040000000000004E009C00EA0023
:100D300038018601D40122027102BF020D035B0358
:100D4000A903F7034504E204FFFF0D0A006E616E7C
:100D500000696E66006F7666002E000000000013CA
:0C0D600006F202A205BC05AE05F105007C
:00000001FF
