:100000000C9435000C945D000C945D000C94BF00C2
:100010000C94C9000C94D3000C945D000C945D000A
:100020000C945D000C945D000C945D000C945D00DC
:100030000C945D000C9479040C945D000C945D00AC
:100040000C94F4030C945D000C9470020C94A202C6
:100050000C945D000C945D000C945D000C945D00AC
:100060000C945D000C945D00C80211241FBECFEFFC
:10007000D8E0DEBFCDBF11E0A0E0B1E0E8EAFBE0F0
:1000800002C005900D92A832B107D9F721E0A8E28D
:10009000B1E001C01D92A13FB207E1F710E0C5E356
:1000A000D0E004C02197FE010E94CC05C433D107E3
:1000B000C9F70E945F000C94D2050C9400002FEF4A
:1000C00081EE94E0215080409040E1F700C00000B4
:1000D0000E944C010E943E0426E040E855E260E0A8
:1000E00070E08EE291E00E940B0260E070E084ED2F
:1000F00091E00E942E05809100019091010197FDF1
:1001000016C040E050E060E070E00E94DD008091A9
:1001100000019091010101979093010180930001EA
:100120008FE19EE40197F1F700C00000E4CF80E08A
:1001300090E00E94F600CEE4D0E00E94040140E08E
:1001400050E060E070E080910001909101010E9418
:10015000FB0080910001909101010196BE010E9477
:10016000820590930101809300019FEF21EE84E0CE
:10017000915020408040E1F700C00000DECF1F9288
:100180000F920FB60F9211240F900FBE0F901F9079
:1001900018951F920F920FB60F9211240F900FBE59
:1001A0000F901F9018951F920F920FB60F92112467
:1001B0000F900FBE0F901F901895CF93DF93EC0117
:1001C0004AE050E0BC018EE291E00E94DD0384ED44
:1001D00091E00E94E604BE0184ED91E00E94CD040E
:1001E00084ED91E0DF91CF910C94F8049093050198
:1001F000809304010895E8E2F1E0918380837383A2
:100200006283558344830895CF93DF9380910201E5
:100210009091030197FF08C080910401909105011E
:1002200090930301809302014AE050E062EE74E093
:100230008EE291E00E94DD0384ED91E00E94E604ED
:10024000C0E0D0E08091020190910301C817D90766
:1002500019F442EE54E004C0409128015091290164
:100260006C2F84ED91E00E94AE042196C031D1053F
:1002700049F784ED91E00E94F80480910201909189
:1002800003010196BE010E948205909303018093B1
:100290000201DF91CF910895209A579A389A289AAF
:1002A0005F9A409A0895FC01918D228D892F90E0EC
:1002B000805C9F4F821B91098F7399270895FC01E1
:1002C000918D828D981731F0828DE80FF11D858D0B
:1002D00090E008958FEF9FEF0895FC01918D828D3E
:1002E000981761F0828DDF01A80FB11D5D968C918A
:1002F000928D9F5F9F73928F90E008958FEF9FEF95
:100300000895FC01848DDF01A80FB11DA35ABF4FD2
:100310002C91848D90E001968F739927848FA68904
:10032000B7892C93A089B1898C9180648C93938D2B
:10033000848D981306C00288F389E02D80818F7D1B
:1003400080830895CF93DF93EC01888D8823C9F0D3
:10035000EA89FB89808185FD05C0A889B9898C91CE
:1003600086FD0FC00FB607FCF5CF808185FFF2CF69
:10037000A889B9898C9185FFEDCFCE010E948101BA
:10038000E7CFDF91CF910895EF92FF920F931F93E4
:10039000CF93DF93EC0181E0888F9B8D8C8D981338
:1003A00005C0E889F989808185FD24C0F62E0B8D72
:1003B00010E00F5F1F4F0F731127E02E8C8DE81296
:1003C0000CC00FB607FCFACFE889F989808185FF58
:1003D000F5CFCE010E948101F1CF8B8DFE01E80F98
:1003E000F11DE35AFF4FF0820B8FEA89FB89808170
:1003F000806207C0EE89FF896083E889F98980817E
:100400008064808381E090E0DF91CF911F910F9114
:10041000FF90EF900895CF92DF92EF92FF921F939B
:10042000CF93DF93EC016A017B01122FE889F989F0
:1004300082E080834115514E61057105B1F060E0A5
:1004400079E08DE390E0A70196010E949605DA011C
:10045000C9010197A109B109B695A7959795879507
:10046000AC01411580E15807A8F0E889F9891082AC
:1004700060E874E88EE190E0A70196010E9496057D
:10048000BA01A90141505109610971097695679531
:1004900057954795EC85FD855083EE85FF85408314
:1004A000188EEC89FD891083EA89FB89808180613F
:1004B0008083EA89FB89808188608083EA89FB895F
:1004C000808180688083EA89FB8980818F7D808339
:1004D000DF91CF911F91FF90EF90DF90CF90089523
:1004E0001F920F920FB60F9211242F938F939F9309
:1004F000EF93FF93E0913E01F0913F018081E09105
:100500004401F091450182FD12C090818091470124
:100510008F5F8F7320914801821751F0E09147015E
:10052000F0E0E25DFE4F958F8093470101C080812E
:10053000FF91EF919F918F912F910F900FBE0F9090
:100540001F9018951F920F920FB60F9211242F93A0
:100550003F934F935F936F937F938F939F93AF934B
:10056000BF93EF93FF938EE291E00E948101FF9190
:10057000EF91BF91AF919F918F917F916F915F911B
:100580004F913F912F910F900FBE0F901F90189594
:10059000EEE2F1E01382128288EE93E0A0E0B0E098
:1005A00084839583A683B7838AE091E091838083D7
:1005B00085EC90E09587848784EC90E09787868728
:1005C00080EC90E0918B808B81EC90E0938B828B20
:1005D00082EC90E0958B848B86EC90E0978B868BF9
:1005E000118E128E138E148E0895CF92DF92EF9299
:1005F000FF920F931F93CF93DF936C01EB017B016D
:10060000E40EF51E00E010E0CE15DF0561F0699103
:10061000D601ED91FC910190F081E02DC601099584
:10062000080F191FF1CFC801DF91CF911F910F91D2
:10063000FF90EF90DF90CF9008956115710579F0EC
:10064000FB0101900020E9F73197AF01461B570BE2
:10065000DC01ED91FC910280F381E02D099480E0B2
:1006600090E00895DC01ED91FC910190F081E02D86
:10067000099466E171E00C941D038F929F92AF92F2
:10068000BF92CF92DF92EF92FF920F931F93CF937F
:10069000DF93CDB7DEB7A1970FB6F894DEBF0FBEDC
:1006A000CDBF6C01142FE52FCB01022F19A22230F0
:1006B00008F40AE07E0121E2E20EF11C802E912C6A
:1006C000A12CB12C612F7E2FA50194010E949605CB
:1006D000029F1019112481E0E81AF1081A3010F471
:1006E000105D01C0195CF7011083122FE32FCA01BE
:1006F000232B242B252B31F7B701C6010E941D03A4
:10070000A1960FB6F894DEBF0FBECDBFDF91CF919B
:100710001F910F91FF90EF90DF90CF90BF90AF901F
:100720009F908F900895CF92DF92EF92FF920F9358
:100730001F93CF93DF93EC016A017B0121153105F3
:1007400079F4E881F9810190F081E02D642FDF9147
:10075000CF911F910F91FF90EF90DF90CF90099470
:100760002A303105E9F477FF1AC06DE20E943203A6
:100770008C0144275527BA014C195D096E097F0980
:100780002AE0CE010E943D03800F911FDF91CF919F
:100790001F910F91FF90EF90DF90CF9008952AE086
:1007A000B701A601CE01DF91CF911F910F91FF906C
:1007B000EF90DF90CF900C943D030F931F93CF9356
:1007C000DF93EC019A01AB01770F660B770B0E9468
:1007D00093038C01CE010E943903800F911FDF919A
:1007E000CF911F910F9108951F920F920FB60F9204
:1007F00011242F933F938F939F93AF93BF93809137
:10080000CC019091CD01A091CE01B091CF0130915A
:10081000CB0123E0230F2D3720F40196A11DB11D3C
:1008200005C026E8230F0296A11DB11D2093CB0120
:100830008093CC019093CD01A093CE01B093CF01D2
:100840008091D0019091D101A091D201B091D301BA
:100850000196A11DB11D8093D0019093D101A09369
:10086000D201B093D301BF91AF919F918F913F91EE
:100870002F910F900FBE0F901F901895789484B50C
:10088000826084BD84B5816084BD85B5826085BD8C
:1008900085B5816085BDEEE6F0E080818160808372
:1008A000E1E8F0E010828081826080838081816055
:1008B0008083E0E8F0E0808181608083E1EBF0E01C
:1008C000808184608083E0EBF0E0808181608083C0
:1008D000EAE7F0E0808184608083808182608083A9
:1008E0008081816080838081806880831092C100D4
:1008F00008951F920F920FB60F9211242F933F93DA
:100900004F935F936F937F938F939F93AF93BF9317
:10091000EF93FF9380E28093800010926F0010921B
:10092000F0018091EE019091EF01892B31F07894E4
:10093000E091EE01F091EF010995FF91EF91BF91E8
:10094000AF919F918F917F916F915F914F913F9167
:100950002F910F900FBE0F901F9018958FE0861B60
:1009600093E0899FF0011124F695E795EA52FE4F36
:1009700080FF05C08081807F852B80830CC0CA01E9
:1009800024E0969587952A95E1F7808381818F7081
:100990004295407F482B41830895CB0124E09695F2
:1009A00087952A95E1F7982F262F862F8295807FAD
:1009B000872BE6EDF1E0908381833396DF01119779
:1009C0002C9331E0EE3EF307B0F3089560E070E061
:1009D0000C94CD04239A259A229A2D9881E08DBDFE
:1009E00080E58CBD08958EBD0DB407FEFDCF089542
:1009F0001F93CF93DF931091F001111129C080E272
:100A0000809380008091D501882329F01092D50130
:100A1000C6EDD1E003C02D9A2D98FACF88810E94AF
:100A2000F30489810E94F3042396FE0131978081AB
:100A30000E94F30481E0CE3ED80780F381E08093EA
:100A4000F00190EA90938000B09A80936F0001C00B
:100A500011E0812FDF91CF911F9108950F931F9384
:100A6000CF93DF9300D0CDB7DEB78C01219A229AC5
:100A7000539A2A9A69837A830E94EA0469817A8167
:100A8000C8010E94CD04C8010E94F804E0E8F0E02B
:100A900080E2808310926F001092F001299A2998C9
:100AA0008083E1E8F0E080E1808381E090E0909352
:100AB00089008093880082E090E090938B0080937F
:100AC0008A0080E090E2909387008093860083E222
:100AD0008093B000A1EBB0E088E08C931092B4005A
:100AE00083E08093B3008C9181608C9380818160DE
:100AF0008083C8010F900F90DF91CF911F910F91CC
:100B00000C94F80497FB072E16F4009407D077FD99
:100B100009D00E94B80507FC05D03EF49095819558
:100B20009F4F0895709561957F4F0895A1E21A2E09
:100B3000AA1BBB1BFD010DC0AA1FBB1FEE1FFF1F81
:100B4000A217B307E407F50720F0A21BB30BE40BD1
:100B5000F50B661F771F881F991F1A9469F7609518
:100B60007095809590959B01AC01BD01CF010895D2
:100B7000AA1BBB1B51E107C0AA1FBB1FA617B707C3
:100B800010F0A61BB70B881F991F5A95A9F78095DF
:100B90009095BC01CD010895EE0FFF1F0590F491D3
:080BA000E02D0994F894FFCF49
:100BA800E204FFFFFFFF00000000C401F50253014B
:100BB8006D015F01A2010D0A006E616E00696E662B
:080BC800006F7666002E0000AC
:00000001FF
