S01B00004350453332395F46696E616C50726F6A6563742E7372656373
S11300000C9436000C945E000C945E000C94D800A2
S11300100C9438010C9498010C945E000C945E00CE
S11300200C945E000C945E000C945E000C945E00D4
S11300300C945E000C9482060C94AE000C945E004A
S11300400C94FD050C945E000C94B0040C94E20432
S11300500C945E000C945E000C945E000C945E00A4
S11300600C945E000C945E006E03080511241FBE00
S1130070CFEFD8E0DEBFCDBF11E0A0E0B1E0EAE60B
S1130080FFE002C005900D92A437B107D9F722E032
S1130090A4E7B1E001C01D92A734B207E1F710E074
S11300A0C6E3D0E004C02197FE010E94AD07C4332B
S11300B0D107C9F70E9460000C94B3070C940000A8
S11300C02FEF81EE94E0215080409040E1F700C092
S11300D000000E94470660E070E08AE292E00E941D
S11300E037070E9472032FEF81EE94E02150804085
S11300F09040E1F700C000000E947B030E9484034B
S113010080E090E00E94FC0140E050E060E070E09C
S113011080E090E00E94FF0126E040E855E260E0C4
S113012070E084E891E00E944B0480917501909105
S11301307601A0917701B0917801813C964CAD4253
S1130140B10510F00E942E038FE799EA23E0815055
S113015090402040E1F700C00000E7CF1F920F92CB
S11301600FB60F9211248F939F93AF93BF938091F7
S1130170750190917601A0917701B09178018C5925
S11301809F4FAF4FBF4F8093750190937601A0931B
S11301907701B09378019BB180E189278BB9BF9136
S11301A0AF919F918F910F900FBE0F901F90189554
S11301B01F920F920FB60F9211242F933F934F93D8
S11301C05F936F937F938F939F93AF93BF93EF93BB
S11301D0FF93809174018823B9F186B5409175012C
S11301E0509176016091770170917801480F511D0B
S11301F0611D711D409375015093760160937701E1
S11302007093780182E00E94D4026BE371E084E889
S113021091E00E94760540917501509176016091BC
S11302207701709178012AE030E084E891E00E943F
S1130230EB051092750110927601109277011092DD
S113024078011092740103C081E080937401FF91DE
S1130250EF91BF91AF919F918F917F916F915F913A
S11302604F913F912F910F900FBE0F901F901895B3
S11302701F920F920FB60F9211242F933F934F9317
S11302805F936F937F938F939F93AF93BF93EF93FA
S1130290FF93809174018823B9F186B5409175016B
S11302A0509176016091770170917801480F511D4A
S11302B0611D711D40937501509376016093770120
S11302C07093780180E00E94D4026BE371E084E8CB
S11302D091E00E94760540917501509176016091FC
S11302E07701709178012AE030E084E891E00E947F
S11302F0EB0510927501109276011092770110921D
S113030078011092740103C081E080937401FF911D
S1130310EF91BF91AF919F918F917F916F915F9179
S11303204F913F912F910F900FBE0F901F901895F2
S11303301F920F920FB60F9211242F933F934F9356
S11303405F936F937F938F939F93AF93BF93EF9339
S1130350FF93809174018823D9F19BB180E18927AF
S11303608BB986B540917501509176016091770102
S113037070917801480F511D611D711D40937501E5
S113038050937601609377017093780181E00E9425
S1130390D4026BE371E084E891E00E947605409119
S11303A075015091760160917701709178012AE08E
S11303B030E084E891E00E94EB0510927501109200
S11303C0760110927701109278011092740103C0A3
S11303D081E080937401FF91EF91BF91AF919F9160
S11303E08F917F916F915F914F913F912F910F90DA
S11303F00FBE0F901F90189580933A010895E9E776
S1130400F1E09183808373836283558344830895E9
S1130410CF92DF92EF92FF926B017C0180913801C1
S113042020917D0130917E0140917B0150917C01AE
S113043090E9C91690EDD90693E0E906F104C8F4F1
S1130440882319F0815080933801223E84E03807D4
S113045030F420533F4F30937E0120937D014115AA
S1130460510511F14853514050937C0140937B0155
S11304701BC08F3030F48C5F813108F080E18093B1
S11304803801423E94E0590730F4485C5E4F509383
S11304907C0140937B012115310531F0205D310948
S11304A030937E0120937D018AE292E00E9401074D
S11304B0C0928001D0928101E0928201F092830186
S11304C0FF90EF90DF90CF9008950F931F93CF93F9
S11304D0DF9300D000D000D0CDB7DEB729833A83B4
S11304E04B835C836D837E838C01000F111F080F87
S11304F0191F49815A81602F8AE292E00E94B7064F
S11305004B815C8161E0600F8AE292E00E94B70651
S11305104D815E8162E0600F8AE292E026960FB61A
S1130520F894DEBF0FBECDBFDF91CF911F910F9125
S11305300C94B706CF93DF93809339018AE292E05B
S11305400E94EF06C0E0D0E080917F0190E0C817E0
S1130550D90724F58091390190E0C817D90769F4C7
S11305602091120130911301409114015091150111
S113057060911601709117010CC02091790130919E
S11305807A0140917B0150917C0160917D017091D1
S11305907E01CE010E9465022196D6CF8AE292E0C6
S11305A0DF91CF910C940107CF93C82FCB01BA01EF
S11305B00E940802E0913801F0E0EE0FFF1FE85EB0
S11305C0FE4F8081918190931301809312018C2FAF
S11305D0CF910C949A02FC01208131818281938114
S11305E021153105A9F4248135812115310541F006
S11305F02253310935832483C296938382830895D9
S1130600C2979383828382E390E0918380830895E9
S1130610009751F4225331093183208384819581D9
S1130620C296958384830895C297938382832E5CB4
S11306303F4F3183208308950F931F93CF93DF930C
S11306408B01EA010E94EB02C8010E94EB02CE0179
S1130650DF91CF911F910F910C94EB0240E051E098
S113066066E071E08CE091E00E941C038AE292E073
S11306700E94EF0620910C0130910D0140910E0172
S113068050910F01609110017091110180E090E090
S11306900E946502209106013091070140910801F2
S11306A05091090160910A0170910B0181E090E081
S11306B00E946502209100013091010140910201E4
S11306C050910301609104017091050182E090E072
S11306D00E9465028AE292E00C94010783E0809311
S11306E07F0108952098579838985C9A5C98289AC6
S11306F05F9A409A089582E084BD85BD98EC97BDC9
S113070080936E0085BB0895F89487E08093680019
S113071091E090936B0090936C0090E890936D003F
S11307208BBB78940895FC01918D228D892F90E0E4
S1130730805C9F4F821B91098F7399270895FC0158
S1130740918D828D981731F0828DE80FF11D858D82
S113075090E008958FEF9FEF0895FC01918D828DB5
S1130760981761F0828DDF01A80FB11D5D968C9101
S1130770928D9F5F9F73928F90E008958FEF9FEF0C
S11307800895FC01848DDF01A80FB11DA35ABF4F4A
S11307902C91848D90E001968F739927848FA6897C
S11307A0B7892C93A089B1898C9180648C93938DA3
S11307B0848D981306C00288F389E02D80818F7D93
S11307C080830895CF93DF93EC01888D8823C9F04B
S11307D0EA89FB89808185FD05C0A889B9898C9146
S11307E086FD0FC00FB607FCF5CF808185FFF2CFE1
S11307F0A889B9898C9185FFEDCFCE010E94C103F0
S1130800E7CFDF91CF910895EF92FF920F931F935B
S1130810CF93DF93EC0181E0888F9B8D8C8D9813AF
S113082005C0E889F989808185FD24C0F62E0B8DE9
S113083010E00F5F1F4F0F731127E02E8C8DE8120D
S11308400CC00FB607FCFACFE889F989808185FFCF
S1130850F5CFCE010E94C103F1CF8B8DFE01E80FCD
S1130860F11DE35AFF4FF0820B8FEA89FB898081E7
S1130870806207C0EE89FF896083E889F9898081F5
S11308808064808381E090E0DF91CF911F910F918C
S1130890FF90EF900895CF92DF92EF92FF921F9313
S11308A0CF93DF93EC016A017B01122FE889F98968
S11308B082E080834115514E61057105B1F060E01D
S11308C079E08DE390E0A70196010E948B07DA019D
S11308D0C9010197A109B109B695A795979587957F
S11308E0AC01411580E15807A8F0E889F989108224
S11308F060E874E88EE190E0A70196010E948B07FE
S1130900BA01A901415051096109710976956795A8
S113091057954795EC85FD855083EE85FF8540838B
S1130920188EEC89FD891083EA89FB8980818061B6
S11309308083EA89FB89808188608083EA89FB89D6
S1130940808180688083EA89FB8980818F7D8083B0
S1130950DF91CF911F91FF90EF90DF90CF9008959A
S11309601F920F920FB60F9211242F938F939F9380
S1130970EF93FF93E0919401F09195018081E091D0
S11309809A01F0919B0182FD12C0908180919D019A
S11309908F5F8F7320919E01821751F0E0919D012A
S11309A0F0E0EC57FE4F958F80939D0101C080814C
S11309B0FF91EF919F918F912F910F900FBE0F9008
S11309C01F9018951F920F920FB60F9211242F9318
S11309D03F934F935F936F937F938F939F93AF93C3
S11309E0BF93EF93FF9384E891E00E94C103FF91CA
S11309F0EF91BF91AF919F918F917F916F915F9193
S1130A004F913F912F910F900FBE0F901F9018950B
S1130A10E4E8F1E01382128288EE93E0A0E0B0E013
S1130A2084839583A683B78386E591E0918380834D
S1130A3085EC90E09587848784EC90E0978786879F
S1130A4080EC90E0918B808B81EC90E0938B828B97
S1130A5082EC90E0958B848B86EC90E0978B868B70
S1130A60118E128E138E148E0895CF92DF92EF9210
S1130A70FF920F931F93CF93DF936C01EB017B01E4
S1130A80E40EF51E00E010E0CE15DF0561F069917B
S1130A90D601ED91FC910190F081E02DC6010995FC
S1130AA0080F191FF1CFC801DF91CF911F910F914A
S1130AB0FF90EF90DF90CF9008956115710579F064
S1130AC0FB0101900020E9F73197AF01461B570B5A
S1130AD0DC01ED91FC910280F381E02D099480E02A
S1130AE090E0089562E671E00C945D050F931F9306
S1130AF0CF93DF93EC010E945D058C01CE010E942F
S1130B007205800F911FDF91CF911F910F9108956E
S1130B108F929F92AF92BF92CF92DF92EF92FF9209
S1130B200F931F93CF93DF93CDB7DEB7A1970FB683
S1130B30F894DEBF0FBECDBF6C01142FE52FCB019F
S1130B40022F19A2223008F40AE07E0121E2E20E0B
S1130B50F11C802E912CA12CB12C612F7E2FA5018C
S1130B6094010E948B07029F1019112481E0E81A56
S1130B70F1081A3010F4105D01C0195CF7011083FC
S1130B80122FE32FCA01232B242B252B31F7B70176
S1130B90C6010E945D05A1960FB6F894DEBF0FBE94
S1130BA0CDBFDF91CF911F910F91FF90EF90DF9018
S1130BB0CF90BF90AF909F908F90089521153105ED
S1130BC041F4DC01ED91FC910190F081E02D642F62
S1130BD009940C9488050F931F93CF93DF93EC0132
S1130BE00E94DE058C01CE010E947205800F911FC8
S1130BF0DF91CF911F910F9108951F920F920FB61D
S1130C000F9211242F933F938F939F93AF93BF938E
S1130C108091220290912302A0912402B091250296
S1130C203091210223E0230F2D3720F40196A11DDA
S1130C30B11D05C026E8230F0296A11DB11D209306
S1130C4021028093220290932302A0932402B09362
S1130C5025028091260290912702A0912802B0914A
S1130C6029020196A11DB11D8093260290932702AB
S1130C70A0932802B0932902BF91AF919F918F91C5
S1130C803F912F910F900FBE0F901F90189578945D
S1130C9084B5826084BD84B5816084BD85B582607D
S1130CA085BD85B5816085BDEEE6F0E0808181601B
S1130CB08083E1E8F0E0108280818260808380811B
S1130CC081608083E0E8F0E0808181608083E1EBF3
S1130CD0F0E0808184608083E0EBF0E080818160DB
S1130CE08083EAE7F0E08081846080838081826091
S1130CF0808380818160808380818068808310927A
S1130D00C10008951F920F920FB60F9211242F93D2
S1130D103F934F935F936F937F938F939F93AF937F
S1130D20BF93EF93FF9380E28093800010926F0053
S1130D30109246028091440290914502892B31F031
S1130D407894E0914402F09145020995FF91EF9166
S1130D50BF91AF919F918F917F916F915F914F91CF
S1130D603F912F910F900FBE0F901F9018958FE019
S1130D70861B93E0899FF0011124F695E795E45DC5
S1130D80FD4F80FF05C08081807F852B80830CC050
S1130D90CA0124E0969587952A95E1F7808381819D
S1130DA08F704295407F482B41830895CB0124E006
S1130DB0969587952A95E1F7982F262F862F829569
S1130DC0807F872BECE2F2E0908381833396DF010E
S1130DD011972C9332E0E434F307B0F3089560E004
S1130DE070E00C94D606239A259A229A2D9881E0D5
S1130DF08DBD80E58CBD08958EBD0DB407FEFDCF7D
S1130E0008951F93CF93DF9310914602111129C0C7
S1130E1080E28093800080912B02882329F0109235
S1130E202B02CCE2D2E003C02D9A2D98FACF888110
S1130E300E94FC0689810E94FC062396FE013197DC
S1130E4080810E94FC0682E0C434D80780F381E0EC
S1130E508093460290EA90938000B09A80936F004A
S1130E6001C011E0812FDF91CF911F9108950F935D
S1130E701F93CF93DF9300D0CDB7DEB78C01219AB7
S1130E80229A539A2A9A69837A830E94F306698183
S1130E907A81C8010E94D606C8010E940107E0E8D1
S1130EA0F0E080E2808310926F0010924602299A4B
S1130EB029988083E1E8F0E080E1808381E090E09C
S1130EC0909389008093880082E090E090938B0057
S1130ED080938A0080E090E290938700809386005C
S1130EE083E28093B000A1EBB0E088E08C93109291
S1130EF0B40083E08093B3008C9181608C938081F3
S1130F0081608083C8010F900F90DF91CF911F9172
S1130F100F910C940107A1E21A2EAA1BBB1BFD0121
S1130F200DC0AA1FBB1FEE1FFF1FA217B307E407C4
S1130F30F50720F0A21BB30BE40BF50B661F771F1C
S1130F40881F991F1A9469F76095709580959095FC
S1130F509B01AC01BD01CF010895EE0FFF1F059069
S10D0F60F491E02D0994F894FFCFFA
S1130F6A00000000E2040000E2040000E2040000C1
S1130F7A0000E204000000000000EA00EA00EA00BF
S1130F8AEA00EA0038018601D401220271020D0343
S1130F9AF703E204E204E2040FFFFF74696D6520BB
S1130FAA72656164696E6720696E206D7320697366
S1130FBA3A0000000000040435059303AD039F03BF
S1130FCAE2030D0A006E616E00696E66006F766652
S1070FDA002E0000E1
S9030000FC
