S01B00004350453332395F46696E616C50726F6A6563742E7372656373
S11300000C9436000C945E000C945E000C94C000BA
S11300100C9420010C9480010C945E000C945E00FE
S11300200C945E000C945E000C945E000C945E00D4
S11300300C945E000C94F3050C9496000C945E00F2
S11300400C946E050C945E000C9421040C945304DF
S11300500C945E000C945E000C945E000C945E00A4
S11300600C945E000C945E00DF02790411241FBE20
S1130070CFEFD8E0DEBFCDBF11E0A0E0B1E0ECE40B
S1130080FEE002C005900D92A236B107D9F722E036
S1130090A2E6B1E001C01D92A733B207E1F710E078
S11300A0C6E3D0E004C02197FE010E941E07C433BA
S11300B0D107C9F70E9460000C9424070C94000037
S11300C02FEF81EE94E0215080409040E1F700C092
S11300D000000E94B80560E070E08AE192E00E94AE
S11300E0A8060E94E3022FEF81EE94E021508040A5
S11300F09040E1F700C000000E94EC020E94F5026B
S113010080E090E00E94E40140E050E060E070E0B4
S113011080E090E00E94E70126E040E855E260E0DC
S113012070E084E791E00E94BC03FFCF1F920F921E
S11301300FB60F9211248F939F93AF93BF93809127
S1130140630190916401A0916501B09166018C599D
S11301509F4FAF4FBF4F8093630190936401A0936F
S11301606501B09366019BB180E189278BB9BF918A
S1130170AF919F918F910F900FBE0F901F90189584
S11301801F920F920FB60F9211242F933F934F9308
S11301905F936F937F938F939F93AF93BF93EF93EB
S11301A0FF93809162018823B9F186B54091630180
S11301B0509164016091650170916601480F511D71
S11301C0611D711D40936301509364016093650147
S11301D07093660180E00E94C80269E271E084E7DE
S11301E091E00E94E70440916301509164016091A1
S11301F06501709166012AE030E084E791E00E9495
S11302005C051092630110926401109265011092D2
S113021066011092620103C081E080936201FF9144
S1130220EF91BF91AF919F918F917F916F915F916A
S11302304F913F912F910F900FBE0F901F901895E3
S11302401F920F920FB60F9211242F933F934F9347
S11302505F936F937F938F939F93AF93BF93EF932A
S1130260FF93809162018823B9F186B540916301BF
S1130270509164016091650170916601480F511DB0
S1130280611D711D40936301509364016093650186
S11302907093660181E00E94C80269E271E084E71C
S11302A091E00E94E70440916301509164016091E0
S11302B06501709166012AE030E084E791E00E94D4
S11302C05C05109263011092640110926501109212
S11302D066011092620103C081E080936201FF9184
S11302E0EF91BF91AF919F918F917F916F915F91AA
S11302F04F913F912F910F900FBE0F901F90189523
S11303001F920F920FB60F9211242F933F934F9386
S11303105F936F937F938F939F93AF93BF93EF9369
S1130320FF93809162018823D9F19BB180E18927F1
S11303308BB986B540916301509164016091650168
S113034070916601480F511D611D711D4093630139
S113035050936401609365017093660182E00E948A
S1130360C80269E271E084E791E00E94E7044091E9
S113037063015091640160916501709166012AE006
S113038030E084E791E00E945C05109263011092D2
S1130390640110926501109266011092620103C01B
S11303A081E080936201FF91EF91BF91AF919F91A2
S11303B08F917F916F915F914F913F912F910F900A
S11303C00FBE0F901F901895809328010895E9E6B9
S11303D0F1E091838083738362835583448308951A
S11303E0CF92DF92EF92FF926B017C0180917001BA
S11303F090917101A0917201B09173018C159D05CA
S1130400AE05BF05B0F4809168018F5F80936801E9
S113041080916D0190916E0180539F4F90936E0176
S113042080936D011092670110926C0110926B0120
S113043015C0809167018F5F8093670180916B0184
S113044090916C0180539F4F90936C0180936B014A
S11304501092680110926E0110926D018AE192E08F
S11304600E94720680916701853048F010926701FE
S113047080912601882319F0815080932601809170
S11304806801853048F010926801809126018F3010
S113049018F48F5F80932601C0927001D09271018D
S11304A0E0927201F0927301FF90EF90DF90CF9091
S11304B008950F931F93CF93DF9300D000D000D003
S11304C0CDB7DEB729833A834B835C836D837E8308
S11304D08C01000F111F080F191F49815A81602FC9
S11304E08AE192E00E9428064B815C8161E0600F02
S11304F08AE192E00E9428064D815E8162E0600FED
S11305008AE192E026960FB6F894DEBF0FBECDBF07
S1130510DF91CF911F910F910C942806CF93DF9315
S1130520809327018AE192E00E946006C0E0D0E057
S113053080916F0190E0C817D90724F580912701B5
S113054090E0C817D90769F42091000130910101A6
S113055040910201509103016091040170910501E1
S11305600CC02091690130916A0140916B01509156
S11305706C0160916D0170916E01CE010E9459026F
S11305802196D6CF8AE192E0DF91CF910C94720646
S1130590CF93C82FCB01BA010E94F001E09126014C
S11305A0F0E0EE0FFF1FEA5FFE4F80819181909390
S11305B00101809300018C2FCF910C948E0283E073
S11305C080936F0108952098579838985C9A5C98A6
S11305D0289A5F9A409A089582E084BD85BD98EC7C
S11305E097BD80936E0085BB0895F89487E080934F
S11305F0680091E090936B0090936C0090E8909366
S11306006D008BBB78940895FC01918D228D892F08
S113061090E0805C9F4F821B91098F739927089506
S1130620FC01918D828D981731F0828DE80FF11DB8
S1130630858D90E008958FEF9FEF0895FC01918DD3
S1130640828D981761F0828DDF01A80FB11D5D9630
S11306508C91928D9F5F9F73928F90E008958FEF9E
S11306609FEF0895FC01848DDF01A80FB11DA35AEB
S1130670BF4F2C91848D90E001968F739927848FBE
S1130680A689B7892C93A089B1898C9180648C93B5
S1130690938D848D981306C00288F389E02D8081A0
S11306A08F7D80830895CF93DF93EC01888D882319
S11306B0C9F0EA89FB89808185FD05C0A889B989CB
S11306C08C9186FD0FC00FB607FCF5CF808185FFA6
S11306D0F2CFA889B9898C9185FFEDCFCE010E9414
S11306E03203E7CFDF91CF910895EF92FF920F93FA
S11306F01F93CF93DF93EC0181E0888F9B8D8C8DCA
S1130700981305C0E889F989808185FD24C0F62EF7
S11307100B8D10E00F5F1F4F0F731127E02E8C8D90
S1130720E8120CC00FB607FCFACFE889F98980817A
S113073085FFF5CFCE010E943203F1CF8B8DFE01F0
S1130740E80FF11DE35AFF4FF0820B8FEA89FB8912
S11307508081806207C0EE89FF896083E889F98916
S113076080818064808381E090E0DF91CF911F914C
S11307700F91FF90EF900895CF92DF92EF92FF9246
S11307801F93CF93DF93EC016A017B01122FE88959
S1130790F98982E080834115514E61057105B1F0FC
S11307A060E079E08DE390E0A70196010E94FC06E9
S11307B0DA01C9010197A109B109B695A7959795E1
S11307C08795AC01411580E15807A8F0E889F989BB
S11307D0108260E874E88EE190E0A70196010E941F
S11307E0FC06BA01A90141505109610971097695C4
S11307F0679557954795EC85FD855083EE85FF8574
S11308004083188EEC89FD891083EA89FB898081F5
S113081080618083EA89FB89808188608083EA899A
S1130820FB89808180688083EA89FB8980818F7D50
S11308308083DF91CF911F91FF90EF90DF90CF9055
S113084008951F920F920FB60F9211242F938F9336
S11308509F93EF93FF93E0918401F0918501808150
S1130860E0918A01F0918B0182FD12C09081809108
S11308708D018F5F8F7320918E01821751F0E0916B
S11308808D01F0E0EC58FE4F958F80938D0101C0EF
S11308908081FF91EF919F918F912F910F900FBEC7
S11308A00F901F9018951F920F920FB60F9211245C
S11308B02F933F934F935F936F937F938F939F9364
S11308C0AF93BF93EF93FF9384E791E00E943203C9
S11308D0FF91EF91BF91AF919F918F917F916F9114
S11308E05F914F913F912F910F900FBE0F901F90EA
S11308F01895E4E7F1E01382128288EE93E0A0E019
S1130900B0E084839583A683B78384E491E09183E4
S1130910808385EC90E09587848784EC90E09787CA
S1130920868780EC90E0918B808B81EC90E0938BB8
S1130930828B82EC90E0958B848B86EC90E0978B95
S1130940868B118E128E138E148E0895CF92DF92A1
S1130950EF92FF920F931F93CF93DF936C01EB0100
S11309607B01E40EF51E00E010E0CE15DF0561F01A
S11309706991D601ED91FC910190F081E02DC601C1
S11309800995080F191FF1CFC801DF91CF911F916D
S11309900F91FF90EF90DF90CF900895611571054E
S11309A079F0FB0101900020E9F73197AF01461B74
S11309B0570BDC01ED91FC910280F381E02D099449
S11309C080E090E0089560E571E00C94CE040F930C
S11309D01F93CF93DF93EC010E94CE048C01CE01D0
S11309E00E94E304800F911FDF91CF911F910F911B
S11309F008958F929F92AF92BF92CF92DF92EF921F
S1130A00FF920F931F93CF93DF93CDB7DEB7A197D8
S1130A100FB6F894DEBF0FBECDBF6C01142FE52FC7
S1130A20CB01022F19A2223008F40AE07E0121E250
S1130A30E20EF11C802E912CA12CB12C612F7E2F63
S1130A40A50194010E94FC06029F1019112481E063
S1130A50E81AF1081A3010F4105D01C0195CF701AE
S1130A601083122FE32FCA01232B242B252B31F7BC
S1130A70B701C6010E94CE04A1960FB6F894DEBF5A
S1130A800FBECDBFDF91CF911F910F91FF90EF90DB
S1130A90DF90CF90BF90AF909F908F9008952115D5
S1130AA0310541F4DC01ED91FC910190F081E02DE0
S1130AB0642F09940C94F9040F931F93CF93DF933D
S1130AC0EC010E944F058C01CE010E94E304800FCB
S1130AD0911FDF91CF911F910F9108951F920F9253
S1130AE00FB60F9211242F933F938F939F93AF933D
S1130AF0BF938091120290911302A0911402B091BD
S1130B0015023091110223E0230F2D3720F40196B2
S1130B10A11DB11D05C026E8230F0296A11DB11D1C
S1130B20209311028093120290931302A093140253
S1130B30B09315028091160290911702A0911802A9
S1130B40B09119020196A11DB11D809316029093D4
S1130B501702A0931802B0931902BF91AF919F910D
S1130B608F913F912F910F900FBE0F901F9018956A
S1130B70789484B5826084BD84B5816084BD85B574
S1130B80826085BD85B5816085BDEEE6F0E080813B
S1130B9081608083E1E8F0E010828081826080835C
S1130BA0808181608083E0E8F0E0808181608083DF
S1130BB0E1EBF0E0808184608083E0EBF0E0808111
S1130BC081608083EAE7F0E08081846080838081B3
S1130BD0826080838081816080838081806880835B
S1130BE01092C10008951F920F920FB60F92112414
S1130BF02F933F934F935F936F937F938F939F9321
S1130C00AF93BF93EF93FF9380E2809380001092A1
S1130C106F00109236028091340290913502892B34
S1130C2031F07894E0913402F09135020995FF9106
S1130C30EF91BF91AF919F918F917F916F915F9150
S1130C404F913F912F910F900FBE0F901F901895C9
S1130C508FE0861B93E0899FF0011124F695E795B8
S1130C60E45EFD4F80FF05C08081807F852B8083FB
S1130C700CC0CA0124E0969587952A95E1F78083F4
S1130C8081818F704295407F482B41830895CB0129
S1130C9024E0969587952A95E1F7982F262F862F9D
S1130CA08295807F872BECE1F2E0908381833396F9
S1130CB0DF0111972C9332E0E433F307B0F3089586
S1130CC060E070E00C944706239A259A229A2D98A6
S1130CD081E08DBD80E58CBD08958EBD0DB407FE09
S1130CE0FDCF08951F93CF93DF9310913602111116
S1130CF029C080E28093800080911B02882329F020
S1130D0010921B02CCE1D2E003C02D9A2D98FACFA9
S1130D1088810E946D0689810E946D062396FE01DA
S1130D20319780810E946D0682E0C433D80780F336
S1130D3081E08093360290EA90938000B09A809389
S1130D406F0001C011E0812FDF91CF911F910895B1
S1130D500F931F93CF93DF9300D0CDB7DEB78C01F1
S1130D60219A229A539A2A9A69837A830E94640662
S1130D7069817A81C8010E944706C8010E947206EF
S1130D80E0E8F0E080E2808310926F001092360277
S1130D90299A29988083E1E8F0E080E1808381E06A
S1130DA090E0909389008093880082E090E0909393
S1130DB08B0080938A0080E090E290938700809378
S1130DC0860083E28093B000A1EBB0E088E08C93CE
S1130DD01092B40083E08093B3008C9181608C9373
S1130DE0808181608083C8010F900F90DF91CF9143
S1130DF01F910F910C947206A1E21A2EAA1BBB1B21
S1130E00FD010DC0AA1FBB1FEE1FFF1FA217B307D2
S1130E10E407F50720F0A21BB30BE40BF50B661FE8
S1130E20771F881F991F1A9469F7609570958095AC
S1130E3090959B01AC01BD01CF010895EE0FFF1FFA
S10F0E400590F491E02D0994F894FFCF84
S1130E4CE2040000000000004E004E004E004E0074
S1130E5C4E004E004E004E004E004E004E004E0012
S1130E6C4E004E00E2040FFFFF74696D652072653D
S1130E7C6164696E6720696E206D732069733A0032
S1130E8C000000007503A60404031E03100353039F
S1130E9C0D0A006E616E00696E66006F7666002E38
S1050EAC000040
S9030000FC
