:100000000C9435000C945D000C945D000C945D0024
:100010000C945D000C945D000C945D000C945D00EC
:100020000C945D000C945D000C945D000C945D00DC
:100030000C945D000C9407040C945D000C945D001E
:100040000C9482030C945D000C94FE010C9430021D
:100050000C945D000C945D000C945D000C945D00AC
:100060000C945D000C945D00560211241FBECFEF6E
:10007000D8E0DEBFCDBF11E0A0E0B1E0E4ECFAE0F3
:1000800002C005900D92A832B107D9F721E0A8E28D
:10009000B1E001C01D92AB3EB207E1F710E0C5E34D
:1000A000D0E004C02197FE010E945A05C433D10755
:1000B000C9F70E945F000C9460050C9400000E9438
:1000C000CC0326E040E855E260E070E088E291E091
:1000D0000E94990160E070E08EEC91E00E94BC0407
:1000E000809100019091010197FD12C00E948F0044
:1000F00080910001909101010197909301018093FB
:1001000000018FE19EE40197F1F700C00000E8CF05
:1001100080E090E00E94A8000E94AD00FDCFCF9348
:10012000DF93EC014AE050E0BC0188E291E00E94DC
:100130006B038EEC91E00E947404BE018EEC91E0A2
:100140000E945B048EEC91E0DF91CF910C948604C9
:10015000909305018093040108958091020190918C
:10016000030197FF08C080910401909105019093CD
:100170000301809302014AE050E062EE74E088E2FD
:1001800091E00E946B038EEC91E00E94740442EEB9
:1001900054E0609102018EEC91E00E943C048EECF0
:1001A00091E00E94860480910201909103010196E2
:1001B00060E170E00E9410059093030180930201BA
:1001C0000895FC01918D228D892F90E0805C9F4FD6
:1001D000821B91098F7399270895FC01918D828D5F
:1001E000981731F0828DE80FF11D858D90E008950C
:1001F0008FEF9FEF0895FC01918D828D981761F02C
:10020000828DDF01A80FB11D5D968C91928D9F5F4D
:100210009F73928F90E008958FEF9FEF0895FC01F8
:10022000848DDF01A80FB11DA35ABF4F2C91848D7F
:1002300090E001968F739927848FA689B7892C93B4
:10024000A089B1898C9180648C93938D848D98134F
:1002500006C00288F389E02D80818F7D8083089518
:10026000CF93DF93EC01888D8823C9F0EA89FB895D
:10027000808185FD05C0A889B9898C9186FD0FC054
:100280000FB607FCF5CF808185FFF2CFA889B98929
:100290008C9185FFEDCFCE010E940F01E7CFDF915A
:1002A000CF910895EF92FF920F931F93CF93DF9317
:1002B000EC0181E0888F9B8D8C8D981305C0E889B7
:1002C000F989808185FD24C0F62E0B8D10E00F5F2B
:1002D0001F4F0F731127E02E8C8DE8120CC00FB644
:1002E00007FCFACFE889F989808185FFF5CFCE0137
:1002F0000E940F01F1CF8B8DFE01E80FF11DE35A33
:10030000FF4FF0820B8FEA89FB898081806207C0F2
:10031000EE89FF896083E889F98980818064808320
:1003200081E090E0DF91CF911F910F91FF90EF90CE
:100330000895CF92DF92EF92FF921F93CF93DF93B6
:10034000EC016A017B01122FE889F98982E0808340
:100350004115514E61057105B1F060E079E08DE322
:1003600090E0A70196010E942405DA01C9010197D6
:10037000A109B109B695A79597958795AC01411547
:1003800080E15807A8F0E889F989108260E874E8EC
:100390008EE190E0A70196010E942405BA01A9010F
:1003A00041505109610971097695679557954795AF
:1003B000EC85FD855083EE85FF854083188EEC89A2
:1003C000FD891083EA89FB89808180618083EA89C5
:1003D000FB89808188608083EA89FB8980818068CD
:1003E0008083EA89FB8980818F7D8083DF91CF9133
:1003F0001F91FF90EF90DF90CF9008951F920F9282
:100400000FB60F9211242F938F939F93EF93FF9327
:10041000E0913801F09139018081E0913E01F09145
:100420003F0182FD12C09081809141018F5F8F73E7
:1004300020914201821751F0E0914101F0E0E85D26
:10044000FE4F958F8093410101C08081FF91EF9114
:100450009F918F912F910F900FBE0F901F90189525
:100460001F920F920FB60F9211242F933F934F9329
:100470005F936F937F938F939F93AF93BF93EF930C
:10048000FF9388E291E00E940F01FF91EF91BF91ED
:10049000AF919F918F917F916F915F914F913F911C
:1004A0002F910F900FBE0F901F901895E8E2F1E08A
:1004B0001382128288EE93E0A0E0B0E084839583FB
:1004C000A683B7838AE091E09183808385EC90E0F6
:1004D0009587848784EC90E09787868780EC90E00E
:1004E000918B808B81EC90E0938B828B82EC90E0FF
:1004F000958B848B86EC90E0978B868B118E128E79
:10050000138E148E0895CF92DF92EF92FF920F9385
:100510001F93CF93DF936C01EB017B01E40EF51E7B
:1005200000E010E0CE15DF0561F06991D601ED9194
:10053000FC910190F081E02DC6010995080F191F6B
:10054000F1CFC801DF91CF911F910F91FF90EF90F4
:10055000DF90CF9008956115710579F0FB0101904E
:100560000020E9F73197AF01461B570BDC01ED91F5
:10057000FC910280F381E02D099480E090E00895E1
:10058000DC01ED91FC910190F081E02D099466E190
:1005900071E00C94AB028F929F92AF92BF92CF9278
:1005A000DF92EF92FF920F931F93CF93DF93CDB71C
:1005B000DEB7A1970FB6F894DEBF0FBECDBF6C01BA
:1005C000142FE52FCB01022F19A2223008F40AE0E4
:1005D0007E0121E2E20EF11C802E912CA12CB12C87
:1005E000612F7E2FA50194010E942405029F1019FE
:1005F000112481E0E81AF1081A3010F4105D01C0EE
:10060000195CF7011083122FE32FCA01232B242B2F
:10061000252B31F7B701C6010E94AB02A1960FB698
:10062000F894DEBF0FBECDBFDF91CF911F910F9128
:10063000FF90EF90DF90CF90BF90AF909F908F9002
:100640000895CF92DF92EF92FF920F931F93CF9373
:10065000DF93EC016A017B012115310579F4E88112
:10066000F9810190F081E02D642FDF91CF911F91EE
:100670000F91FF90EF90DF90CF9009942A303105D1
:10068000E9F477FF1AC06DE20E94C0028C01442792
:100690005527BA014C195D096E097F092AE0CE0180
:1006A0000E94CB02800F911FDF91CF911F910F917C
:1006B000FF90EF90DF90CF9008952AE0B701A60158
:1006C000CE01DF91CF911F910F91FF90EF90DF90BE
:1006D000CF900C94CB020F931F93CF93DF93EC0139
:1006E0009A01AB01770F660B770B0E9421038C01F7
:1006F000CE010E94C702800F911FDF91CF911F9101
:100700000F9108951F920F920FB60F9211242F93FD
:100710003F938F939F93AF93BF938091C601909126
:10072000C701A091C801B091C9013091C50123E072
:10073000230F2D3720F40196A11DB11D05C026E819
:10074000230F0296A11DB11D2093C5018093C60100
:100750009093C701A093C801B093C9018091CA01C9
:100760009091CB01A091CC01B091CD010196A11D3A
:10077000B11D8093CA019093CB01A093CC01B0939B
:10078000CD01BF91AF919F918F913F912F910F908C
:100790000FBE0F901F901895789484B5826084BD29
:1007A00084B5816084BD85B5826085BD85B5816075
:1007B00085BDEEE6F0E0808181608083E1E8F0E0D5
:1007C0001082808182608083808181608083E0E804
:1007D000F0E0808181608083E1EBF0E080818460E3
:1007E0008083E0EBF0E0808181608083EAE7F0E0E5
:1007F0008081846080838081826080838081816049
:1008000080838081806880831092C10008951F9248
:100810000F920FB60F9211242F933F934F935F9334
:100820006F937F938F939F93AF93BF93EF93FF93B8
:1008300080E28093800010926F001092EA01809114
:10084000E8019091E901892B31F07894E091E80179
:10085000F091E9010995FF91EF91BF91AF919F91BF
:100860008F917F916F915F914F913F912F910F9059
:100870000FBE0F901F9018958FE0861B93E0899F05
:10088000F0011124F695E795E053FE4F80FF05C077
:100890008081807F852B80830CC0CA0124E09695DF
:1008A00087952A95E1F7808381818F704295407FFB
:1008B000482B41830895CB0124E0969587952A958E
:1008C000E1F7982F262F862F8295807F872BE0EDEA
:1008D000F1E0908381833396DF0111972C9331E00F
:1008E000E83EF307B0F3089560E070E00C945B0419
:1008F000239A259A229A2D9881E08DBD80E58CBDA2
:1009000008958EBD0DB407FEFDCF08951F93CF93BC
:10091000DF931091EA01111129C080E280938000D9
:100920008091CF01882329F01092CF01C0EDD1E052
:1009300003C02D9A2D98FACF88810E948104898165
:100940000E9481042396FE01319780810E948104D8
:1009500081E0C83ED80780F381E08093EA0190EA05
:1009600090938000B09A80936F0001C011E0812FB6
:10097000DF91CF911F9108950F931F93CF93DF9332
:1009800000D0CDB7DEB78C01219A229A539A2A9AC9
:1009900069837A830E94780469817A81C8010E9400
:1009A0005B04C8010E948604E0E8F0E080E28083F6
:1009B00010926F001092EA01299A29988083E1E849
:1009C000F0E080E1808381E090E090938900809363
:1009D000880082E090E090938B0080938A0080E012
:1009E00090E2909387008093860083E28093B0002A
:1009F000A1EBB0E088E08C931092B40083E0809388
:100A0000B3008C9181608C93808181608083C80168
:100A10000F900F90DF91CF911F910F910C9486044E
:100A200097FB072E16F4009407D077FD09D00E949B
:100A3000460507FC05D03EF4909581959F4F08959B
:100A4000709561957F4F0895A1E21A2EAA1BBB1BDA
:100A5000FD010DC0AA1FBB1FEE1FFF1FA217B3078A
:100A6000E407F50720F0A21BB30BE40BF50B661FA0
:100A7000771F881F991F1A9469F760957095809564
:100A800090959B01AC01BD01CF010895AA1BBB1B32
:100A900051E107C0AA1FBB1FA617B70710F0A61B7E
:100AA000B70B881F991F5A95A9F780959095BC019F
:100AB000CD010895EE0FFF1F0590F491E02D0994EC
:040AC000F894FFCFD8
:100AC400E204FFFFFFFF0000000052018302E10087
:100AD400FB00ED0030010D0A006E616E00696E6668
:080AE400006F7666002E000091
:00000001FF
