:100000000C9435000C945D000C945D000C94F3008E
:100010000C9408010C941D010C945D000C945D007F
:100020000C945D000C945D000C945D000C945D00DC
:100030000C945D000C94CD030C94BB000C945D00FB
:100040000C9448030C945D000C94C4010C94F601CC
:100050000C945D000C945D000C945D000C945D00AC
:100060000C945D000C945D001C0211241FBECFEFA8
:10007000D8E0DEBFCDBF11E0A0E0B1E0E0ECFBE0F6
:1000800002C005900D92A832B107D9F721E0A8E28D
:10009000B1E001C01D92A53FB207E1F710E0C5E352
:1000A000D0E004C02197FE010E94D805C433D107D7
:1000B000C9F70E945F000C94DE050C9400002FEF3E
:1000C00081EE94E0215080409040E1F700C00000B4
:1000D0000E94920360E070E088ED91E00E9482044B
:1000E0000E94A6010E94AD010E94B6017894809101
:1000F00000019091010197FD16C040E050E060E0E2
:1001000070E00E94320180910001909101010197FD
:1001100090930101809300018FE19EE40197F1F734
:1001200000C00000E4CF80E090E00E944B01CEE4EC
:10013000D0E00E94590140E050E060E070E0809122
:100140000001909101010E94500180910001909165
:1001500001010196BE010E948E05909301018093DA
:1001600000019FEF21EE84E0915020408040E1F7B4
:1001700000C00000DECF1F920F920FB60F92112425
:100180002F938F939F93AF93BF938091280190916A
:100190002901A0912A01B0912B018C599F4FAF4F9B
:1001A000BF4F813422E492072FE0A207B10548F443
:1001B0008093280190932901A0932A01B0932B01E9
:1001C00008C0109228011092290110922A01109261
:1001D0002B01BF91AF919F918F912F910F900FBEE7
:1001E0000F901F9018951F920F920FB60F92112427
:1001F0008F9386B5109228011092290110922A013E
:1002000010922B018F910F900FBE0F901F90189599
:100210001F920F920FB60F9211248F9386B51092F2
:1002200028011092290110922A0110922B018F911E
:100230000F900FBE0F901F9018951F920F920FB640
:100240000F9211248F9386B51092280110922901E4
:1002500010922A0110922B018F910F900FBE0F90D8
:100260001F901895CF93DF93EC014AE050E0BC015A
:1002700082E391E00E94310388ED91E00E943A040C
:10028000BE0188ED91E00E94210488ED91E0DF91AC
:10029000CF910C944C049093050180930401089530
:1002A000ECE2F1E09183808373836283558344831E
:1002B0000895CF93DF93809102019091030197FFFE
:1002C00008C08091040190910501909303018093EF
:1002D00002014AE050E062EE74E082E391E00E94A5
:1002E000310388ED91E00E943A04C0E0D0E08091B3
:1002F000020190910301C817D90719F442EE54E0A6
:1003000004C040912C0150912D016C2F88ED91E09B
:100310000E9402042196C031D10549F788ED91E091
:100320000E944C0480910201909103010396813157
:1003300091052CF4909303018093020104C0109264
:10034000030110920201DF91CF910895209A579AEC
:10035000389A289A5F9A409A089582E084BD85BDB4
:1003600098EC97BD80936E0085BB0895F89487E064
:100370008093680091E090936B0020E820936C00DC
:1003800090936D008BBB08951F920F920FB60F9242
:1003900011242F938F939F93EF93FF93E09142014A
:1003A000F09143018081E0914801F091490182FD83
:1003B00012C0908180914B018F5F8F7320914C010F
:1003C000821751F0E0914B01F0E0EE5CFE4F958F0B
:1003D00080934B0101C08081FF91EF919F918F919C
:1003E0002F910F900FBE0F901F9018951F920F9294
:1003F0000FB60F9211242F933F934F935F936F93F8
:100400007F938F939F93AF93BF93EF93FF9382E379
:1004100091E00E940405FF91EF91BF91AF919F91F0
:100420008F917F916F915F914F913F912F910F909D
:100430000FBE0F901F901895E2E3F1E01382128235
:1004400088EE93E0A0E0B0E084839583A683B78331
:100450008BE191E09183808385EC90E095878487A0
:1004600084EC90E09787868780EC90E0918B808B7E
:1004700081EC90E0938B828B82EC90E0958B848B67
:1004800086EC90E0978B868B118E128E138E148ED5
:100490000895CF92DF92EF92FF920F931F93CF9325
:1004A000DF936C01EB017B01E40EF51E00E010E030
:1004B000CE15DF0561F06991D601ED91FC910190B7
:1004C000F081E02DC6010995080F191FF1CFC80171
:1004D000DF91CF911F910F91FF90EF90DF90CF9020
:1004E00008956115710579F0FB0101900020E9F78D
:1004F0003197AF01461B570BDC01ED91FC91028057
:10050000F381E02D099480E090E00895DC01ED9105
:10051000FC910190F081E02D099466E071E00C946B
:1005200071028F929F92AF92BF92CF92DF92EF9221
:10053000FF920F931F93CF93DF93CDB7DEB7A197B1
:100540000FB6F894DEBF0FBECDBF6C01142FE52FA0
:10055000CB01022F19A2223008F40AE07E0121E229
:10056000E20EF11C802E912CA12CB12C612F7E2F3C
:10057000A50194010E94A205029F1019112481E097
:10058000E81AF1081A3010F4105D01C0195CF70187
:100590001083122FE32FCA01232B242B252B31F795
:1005A000B701C6010E947102A1960FB6F894DEBF92
:1005B0000FBECDBFDF91CF911F910F91FF90EF90B4
:1005C000DF90CF90BF90AF909F908F900895CF9283
:1005D000DF92EF92FF920F931F93CF93DF93EC0183
:1005E0006A017B012115310579F4E881F9810190D7
:1005F000F081E02D642FDF91CF911F910F91FF903B
:10060000EF90DF90CF9009942A303105E9F477FF1D
:100610001AC06DE20E9486028C0144275527BA0158
:100620004C195D096E097F092AE0CE010E949102F2
:10063000800F911FDF91CF911F910F91FF90EF904D
:10064000DF90CF9008952AE0B701A601CE01DF9197
:10065000CF911F910F91FF90EF90DF90CF900C946E
:1006600091020F931F93CF93DF93EC019A01AB019B
:10067000770F660B770B0E94E7028C01CE010E9478
:100680008D02800F911FDF91CF911F910F910895DF
:100690001F920F920FB60F9211242F933F938F93B7
:1006A0009F93AF93BF938091D0019091D101A0917E
:1006B000D201B091D3013091CF0123E0230F2D3728
:1006C00020F40196A11DB11D05C026E8230F029656
:1006D000A11DB11D2093CF018093D0019093D10132
:1006E000A093D201B093D3018091D4019091D50110
:1006F000A091D601B091D7010196A11DB11D8093A3
:10070000D4019093D501A093D601B093D701BF91A6
:10071000AF919F918F913F912F910F900FBE0F90AE
:100720001F901895789484B5826084BD84B58160EB
:1007300084BD85B5826085BD85B5816085BDEEE6E9
:10074000F0E0808181608083E1E8F0E010828081C8
:1007500082608083808181608083E0E8F0E0808136
:1007600081608083E1EBF0E0808184608083E0EB56
:10077000F0E0808181608083EAE7F0E0808184603E
:10078000808380818260808380818160808380819A
:10079000806880831092C10008951F920F920FB657
:1007A0000F9211242F933F934F935F936F937F93F7
:1007B0008F939F93AF93BF93EF93FF9380E28093C8
:1007C000800010926F001092F4018091F2019091DC
:1007D000F301892B31F07894E091F201F091F3016B
:1007E0000995FF91EF91BF91AF919F918F917F916B
:1007F0006F915F914F913F912F910F900FBE0F908E
:100800001F9018958FE0861B93E0899FF0011124BB
:10081000F695E795E652FE4F80FF05C08081807F08
:10082000852B80830CC0CA0124E0969587952A9574
:10083000E1F7808381818F704295407F482B41830F
:100840000895CB0124E0969587952A95E1F7982F96
:10085000262F862F8295807F872BEAEDF1E090830B
:1008600081833396DF0111972C9331E0E23FF30748
:10087000B0F3089560E070E00C942104239A259A67
:10088000229A2D9881E08DBD80E58CBD08958EBDA6
:100890000DB407FEFDCF08951F93CF93DF93109102
:1008A000F401111129C080E2809380008091D90168
:1008B000882329F01092D901CAEDD1E003C02D9A06
:1008C0002D98FACF88810E94470489810E944704AD
:1008D0002396FE01319780810E94470481E0C23F48
:1008E000D80780F381E08093F40190EA9093800030
:1008F000B09A80936F0001C011E0812FDF91CF91FA
:100900001F9108950F931F93CF93DF9300D0CDB71E
:10091000DEB78C01219A229A539A2A9A69837A83A4
:100920000E943E0469817A81C8010E942104C801A5
:100930000E944C04E0E8F0E080E2808310926F00B7
:100940001092F401299A29988083E1E8F0E080E18F
:10095000808381E090E0909389008093880082E01A
:1009600090E090938B0080938A0080E090E29093D7
:1009700087008093860083E28093B000A1EBB0E013
:1009800088E08C931092B40083E08093B3008C9144
:1009900081608C93808181608083C8010F900F906B
:1009A000DF91CF911F910F910C944C04FC01918D1C
:1009B000228D892F90E0805C9F4F821B91098F735D
:1009C00099270895FC01918D828D981731F0828DC1
:1009D000E80FF11D858D90E008958FEF9FEF08954A
:1009E000FC01918D828D981761F0828DDF01A80F37
:1009F000B11D5D968C91928D9F5F9F73928F90E059
:100A000008958FEF9FEF0895FC01848DDF01A80FFB
:100A1000B11DA35ABF4F2C91848D90E001968F7326
:100A20009927848FA689B7892C93A089B1898C9145
:100A300080648C93938D848D981306C00288F3890B
:100A4000E02D80818F7D80830895CF93DF93EC012B
:100A5000888D8823C9F0EA89FB89808185FD05C0DE
:100A6000A889B9898C9186FD0FC00FB607FCF5CF18
:100A7000808185FFF2CFA889B9898C9185FFEDCF60
:100A8000CE010E940405E7CFDF91CF910895EF9248
:100A9000FF920F931F93CF93DF93EC0181E0888F38
:100AA0009B8D8C8D981305C0E889F989808185FD1F
:100AB00024C0F62E0B8D10E00F5F1F4F0F73112710
:100AC000E02E8C8DE8120CC00FB607FCFACFE88937
:100AD000F989808185FFF5CFCE010E940405F1CF11
:100AE0008B8DFE01E80FF11DE35AFF4FF0820B8F53
:100AF000EA89FB898081806207C0EE89FF89608373
:100B0000E889F98980818064808381E090E0DF91C9
:100B1000CF911F910F91FF90EF90089597FB072EB3
:100B200016F4009407D077FD09D00E94C40507FC95
:100B300005D03EF4909581959F4F089570956195ED
:100B40007F4F0895A1E21A2EAA1BBB1BFD010DC009
:100B5000AA1FBB1FEE1FFF1FA217B307E407F5076D
:100B600020F0A21BB30BE40BF50B661F771F881F49
:100B7000991F1A9469F760957095809590959B01DF
:100B8000AC01BD01CF010895AA1BBB1B51E107C0F9
:100B9000AA1FBB1FA617B70710F0A61BB70B881F0D
:100BA000991F5A95A9F780959095BC01CD0108959C
:100BB000EE0FFF1F0590F491E02D0994F894FFCFFC
:100BC000E204FFFFFFFF0D0A006E616E00696E66B2
:100BD000006F7666002E000000000047054902D62F
:080BE00004F004E20425050005
:00000001FF
