S01B00004350453332395F46696E616C50726F6A6563742E7372656373
S11300000C9436000C945E000C945E000C94CE00AC
S11300100C9416010C945E010C945E000C945E002A
S11300200C945E000C945E000C945E000C945E00D4
S11300300C945E000C94BE040C9496000C945E0028
S11300400C9439040C945E000C94B5020C94E702F1
S11300500C945E000C945E000C945E000C945E00A4
S11300600C945E000C945E0090020D0311241FBEDC
S1130070CFEFD8E0DEBFCDBF11E0A0E0B1E0E2E514
S1130080FDE002C005900D92AC34B107D9F722E02F
S1130090ACE4B1E001C01D92A032B207E1F710E078
S11300A0C6E3D0E004C02197FE010E94A106C43338
S11300B0D107C9F70E9460000C94A7060C940000B5
S11300C02FEF81EE94E0215080409040E1F700C092
S11300D000000E94830460E070E083E092E00E94EC
S11300E073050E9494022FEF81EE94E0215080402A
S11300F09040E1F700C000000E949D020E94A60209
S113010080E090E00E94A60142EE54E062EE74E0CA
S113011082EE94E00E94A9012FEF89E698E1215034
S113012080409040E1F700C00000F6CF1F920F928C
S11301300FB60F9211242F938F939F93AF93BF9376
S113014080914C0190914D01A0914E01B0914F01CD
S11301508C599F4FAF4FBF4F813422E492072FE059
S1130160A207B10548F480934C0190934D01A093EC
S11301704E01B0934F0108C010924C0110924D01F2
S113018010924E0110924F01BF91AF919F918F91A8
S11301902F910F900FBE0F901F9018951F920F92E2
S11301A00FB60F9211242F933F934F935F936F9346
S11301B07F938F939F93AF93BF93EF93FF93F894A1
S11301C09BB180E189278BB986B540914C01509150
S11301D04D0160914E0170914F01480F511D611DF9
S11301E0711D40934C0150934D0160934E017093E7
S11301F04F0180E00E947A0210924C0110924D014E
S113020010924E0110924F017894FF91EF91BF919B
S1130210AF919F918F917F916F915F914F913F919A
S11302202F910F900FBE0F901F9018951F920F9251
S11302300FB60F9211242F933F934F935F936F93B5
S11302407F938F939F93AF93BF93EF93FF93F89410
S11302509BB180E189278BB986B540914C015091BF
S11302604D0160914E0170914F01480F511D611D68
S1130270711D40934C0150934D0160934E01709356
S11302804F0181E00E947A0210924C0110924D01BC
S113029010924E0110924F017894FF91EF91BF910B
S11302A0AF919F918F917F916F915F914F913F910A
S11302B02F910F900FBE0F901F9018951F920F92C1
S11302C00FB60F9211242F933F934F935F936F9325
S11302D07F938F939F93AF93BF93EF93FF93F89480
S11302E09BB180E189278BB986B540914C0150912F
S11302F04D0160914E0170914F01480F511D611DD8
S1130300711D40934C0150934D0160934E017093C5
S11303104F0182E00E947A0210924C0110924D012A
S113032010924E0110924F017894FF91EF91BF917A
S1130330AF919F918F917F916F915F914F913F9179
S11303402F910F900FBE0F901F9018958093290145
S11303500895E2E5F1E0918380837383628355839A
S113036044830895092E000CAA0BBB0B1092500174
S113037020912701222319F0215020932701109264
S11303805101209127012F3018F42F5F209327016A
S11303908093590190935A01A0935B01B0935C013F
S11303A008950F931F93CF93DF9300D000D000D014
S11303B0CDB7DEB729833A834B835C836D837E8319
S11303C08C01000F111F080F191F49815A81602FDA
S11303D083E092E00E94F3044B815C8161E0600F52
S11303E083E092E00E94F3044D815E8162E0600F3D
S11303F083E092E026960FB6F894DEBF0FBECDBF21
S1130400DF91CF911F910F910C94F304CF93DF935D
S11304109091000151E040E0923019F4882321F0DA
S113042002C0981708F050E0252F342F232B11F128
S11304304091280121E0240F209328013091580194
S1130440231718F01092280115C0923041F451E09E
S113045090E0823009F050E0252F392F07C061E089
S113046050E0891708F060E0262F352F232B11F078
S113047040932801809300014AE050E062EE74E06A
S11304808DE591E00E94220483E092E00E942B0516
S1130490C0E0D0E08091580190E0C817D90724F556
S11304A08091280190E0C817D90769F420910101CF
S11304B030910201409103015091040160910501C2
S11304C0709106010CC0209152013091530140916A
S11304D05401509155016091560170915701CE011C
S11304E00E94D1012196D6CF83E092E0DF91CF9193
S11304F00C943D05CF93C82FCA010E94B201E0912C
S11305002701F0E0EE0FFF1FE95FFE4F808191812C
S113051090930201809301018C2FCF910C940602D9
S113052083E08093580108952098579838985C9AEE
S11305305C98289A5F9A409A089582E084BD85BDAC
S113054098EC97BD80936E0085BB0895F89487E07E
S11305508093680091E090936B0090936C0090E816
S113056090936D008BBB789408951F920F920FB6F1
S11305700F9211242F938F939F93EF93FF93E09106
S11305806D01F0916E018081E0917301F09174012D
S113059082FD12C09081809176018F5F8F732091CC
S11305A07701821751F0E0917601F0E0E35AFE4FB3
S11305B0958F8093760101C08081FF91EF919F9187
S11305C08F912F910F900FBE0F901F9018951F922F
S11305D00F920FB60F9211242F933F934F935F9373
S11305E06F937F938F939F93AF93BF93EF93FF93F7
S11305F08DE591E00E94F505FF91EF91BF91AF91D8
S11306009F918F917F916F915F914F913F912F9126
S11306100F900FBE0F901F901895EDE5F1E0138237
S1130620128288EE93E0A0E0B0E084839583A683F1
S1130630B7838FE391E09183808385EC90E0958785
S1130640848784EC90E09787868780EC90E0918B98
S1130650808B81EC90E0938B828B82EC90E0958B85
S1130660848B86EC90E0978B868B118E128E138E82
S1130670148E0895CF92DF92EF92FF920F931F93FF
S1130680CF93DF936C01EB017B01E40EF51E00E0D8
S113069010E0CE15DF0561F06991D601ED91FC9172
S11306A00190F081E02DC6010995080F191FF1CFC3
S11306B0C801DF91CF911F910F91FF90EF90DF90D0
S11306C0CF9008956115710579F0FB010190002028
S11306D0E9F73197AF01461B570BDC01ED91FC9113
S11306E00280F381E02D099480E090E00895DC011C
S11306F0ED91FC910190F081E02D09946AE271E0A2
S11307000C9462038F929F92AF92BF92CF92DF922A
S1130710EF92FF920F931F93CF93DF93CDB7DEB782
S1130720A1970FB6F894DEBF0FBECDBF6C01142F96
S1130730E52FCB01022F19A2223008F40AE07E0132
S113074021E2E20EF11C802E912CA12CB12C612F00
S11307507E2FA50194010E947F06029F1019112487
S113076081E0E81AF1081A3010F4105D01C0195C38
S1130770F7011083122FE32FCA01232B242B252BDF
S113078031F7B701C6010E946203A1960FB6F8942F
S1130790DEBF0FBECDBFDF91CF911F910F91FF90B0
S11307A0EF90DF90CF90BF90AF909F908F9008957F
S11307B0CF92DF92EF92FF920F931F93CF93DF9329
S11307C0EC016A017B012115310579F4E881F98195
S11307D00190F081E02D642FDF91CF911F910F9153
S11307E0FF90EF90DF90CF9009942A303105E9F41F
S11307F077FF1AC06DE20E9477038C0144275527C6
S1130800BA014C195D096E097F092AE0CE010E94E4
S11308108203800F911FDF91CF911F910F91FF9061
S1130820EF90DF90CF9008952AE0B701A601CE01A2
S1130830DF91CF911F910F91FF90EF90DF90CF90B8
S11308400C9482030F931F93CF93DF93EC019A01CF
S1130850AB01770F660B770B0E94D8038C01CE0196
S11308600E947E03800F911FDF91CF911F910F9102
S113087008951F920F920FB60F9211242F933F9356
S11308808F939F93AF93BF938091FB019091FC0151
S1130890A091FD01B091FE013091FA0123E0230FF4
S11308A02D3720F40196A11DB11D05C026E8230FA4
S11308B00296A11DB11D2093FA018093FB01909330
S11308C0FC01A093FD01B093FE018091FF01909182
S11308D00002A0910102B09102020196A11DB11D76
S11308E08093FF0190930002A0930102B09302024F
S11308F0BF91AF919F918F913F912F910F900FBE18
S11309000F901F901895789484B5826084BD84B547
S1130910816084BD85B5826085BD85B5816085BDF6
S1130920EEE6F0E0808181608083E1E8F0E010820F
S1130930808182608083808181608083E0E8F0E050
S1130940808181608083E1EBF0E08081846080833A
S1130950E0EBF0E0808181608083EAE7F0E0808171
S113096084608083808182608083808181608083D1
S11309708081806880831092C10008951F920F9235
S11309800FB60F9211242F933F934F935F936F935E
S11309907F938F939F93AF93BF93EF93FF9380E2E3
S11309A08093800010926F0010921F0280911D02AC
S11309B090911E02892B31F07894E0911D02F09100
S11309C01E020995FF91EF91BF91AF919F918F9175
S11309D07F916F915F914F913F912F910F900FBE37
S11309E00F901F9018958FE0861B93E0899FF0016C
S11309F01124F695E795EB5FFD4F80FF05C08081DC
S1130A00807F852B80830CC0CA0124E0969587954E
S1130A102A95E1F7808381818F704295407F482B2E
S1130A2041830895CB0124E0969587952A95E1F7B3
S1130A30982F262F862F8295807F872BE5E0F2E082
S1130A40908381833396DF0111972C9332E0ED314B
S1130A50F307B0F3089560E070E00C941205239A54
S1130A60259A229A2D9881E08DBD80E58CBD08954C
S1130A708EBD0DB407FEFDCF08951F93CF93DF9372
S1130A8010911F02111129C080E28093800080918F
S1130A900402882329F010920402C5E0D2E003C0C6
S1130AA02D9A2D98FACF88810E94380589810E9459
S1130AB038052396FE01319780810E94380582E033
S1130AC0CD31D80780F381E080931F0290EA9093A0
S1130AD08000B09A80936F0001C011E0812FDF91F4
S1130AE0CF911F9108950F931F93CF93DF9300D05D
S1130AF0CDB7DEB78C01219A229A539A2A9A698338
S1130B007A830E942F0569817A81C8010E941205A7
S1130B10C8010E943D05E0E8F0E080E28083109285
S1130B206F0010921F02299A29988083E1E8F0E06F
S1130B3080E1808381E090E0909389008093880035
S1130B4082E090E090938B0080938A0080E090E2B2
S1130B50909387008093860083E28093B000A1EB9A
S1130B60B0E088E08C931092B40083E08093B300EB
S1130B708C9181608C93808181608083C8010F9007
S1130B800F90DF91CF911F910F910C943D05FC01C3
S1130B90918D228D892F90E0805C9F4F821B91095B
S1130BA08F7399270895FC01918D828D981731F0E8
S1130BB0828DE80FF11D858D90E008958FEF9FEFF2
S1130BC00895FC01918D828D981761F0828DDF016B
S1130BD0A80FB11D5D968C91928D9F5F9F73928F2C
S1130BE090E008958FEF9FEF0895FC01848DDF015D
S1130BF0A80FB11DA35ABF4F2C91848D90E001968C
S1130C008F739927848FA689B7892C93A089B1897A
S1130C108C9180648C93938D848D981306C0028884
S1130C20F389E02D80818F7D80830895CF93DF93B6
S1130C30EC01888D8823C9F0EA89FB89808185FDD0
S1130C4005C0A889B9898C9186FD0FC00FB607FC31
S1130C50F5CF808185FFF2CFA889B9898C9185FF72
S1130C60EDCFCE010E94F505E7CFDF91CF91089536
S1130C70EF92FF920F931F93CF93DF93EC0181E0E8
S1130C80888F9B8D8C8D981305C0E889F9898081A4
S1130C9085FD24C0F62E0B8D10E00F5F1F4F0F73E0
S1130CA01127E02E8C8DE8120CC00FB607FCFACF8A
S1130CB0E889F989808185FFF5CFCE010E94F50589
S1130CC0F1CF8B8DFE01E80FF11DE35AFF4FF08247
S1130CD00B8FEA89FB898081806207C0EE89FF89D6
S1130CE06083E889F98980818064808381E090E071
S1130CF0DF91CF911F910F91FF90EF900895A1E2A2
S1130D001A2EAA1BBB1BFD010DC0AA1FBB1FEE1F81
S1130D10FF1FA217B307E407F50720F0A21BB30BCC
S1130D20E40BF50B661F771F881F991F1A9469F748
S1130D3060957095809590959B01AC01BD01CF01A4
S1130D400895EE0FFF1F0590F491E02D0994F89497
S1050D50FFCFCF
S1130D52FFE2040000000000004E004E004E004E70
S1130D62004E004E004E004E004E004E004E004E0D
S1130D72004E004E00E2040FFFFF0D0A006E616E8A
S1130D8200696E66006F7666002E0000000000386F
S10F0D92063A03C705E105D30516060068
S9030000FC
