S01B00004350453332395F46696E616C50726F6A6563742E7372656373
S11300000C9436000C945E000C945E000C94E30097
S11300100C9400010C941D010C945E000C945E0081
S11300200C945E000C945E000C945E000C945E00D4
S11300300C945E000C9448040C94AB000C945E0089
S11300400C94C3030C945E000C943F020C94710254
S11300500C945E000C945E000C945E000C945E00A4
S11300600C945E000C945E001A02970211241FBEC9
S1130070CFEFD8E0DEBFCDBF11E0A0E0B1E0EEE706
S1130080FCE002C005900D92AA34B107D9F722E032
S1130090AAE4B1E001C01D92AF31B207E1F710E06C
S11300A0C6E3D0E004C02197FE010E943706C433A2
S11300B0D107C9F70E9460000C943D060C9400001F
S11300C02FEF81EE94E0215080409040E1F700C092
S11300D000000E940D0460E070E082E092E00E9463
S11300E0FD040E941E022FEF81EE94E02150804017
S11300F09040E1F700C000000E9427020E943002F5
S113010080E090E00E943A0143E550E060E070E056
S113011080E090E00E943D018FE3C82E82E4D82E57
S11301208FE0E82EF12CC701B6010E940802C11429
S1130130D104E104F10429F021E0C21AD108E10854
S1130140F1088FEF91EE24E0815090402040E1F7D8
S113015000C00000E8CF1F920F920FB60F92112437
S11301602F938F939F93AF93BF9380914A01909164
S11301704B01A0914C01B0914D018C599F4FAF4F51
S1130180BF4F813422E492072FE0A207B10548F45F
S113019080934A0190934B01A0934C01B0934D017D
S11301A008C010924A0110924B0110924C01109217
S11301B04D01BF91AF919F918F912F910F900FBEE1
S11301C00F901F9018951F920F920FB60F92112443
S11301D08F939F93F8949BB184E089278BB986B55C
S11301E010924A0110924B0110924C0110924D0151
S11301F078949F918F910F900FBE0F901F90189538
S11302001F920F920FB60F9211248F939F93F8941D
S11302109BB184E089278BB986B510924A0110926C
S11302204B0110924C0110924D0178949F918F9143
S11302300F900FBE0F901F9018951F920F920FB63C
S11302400F9211248F939F93F8949BB184E0892794
S11302508BB986B510924A0110924B0110924C0151
S113026010924D0178949F918F910F900FBE0F9033
S11302701F901895809327010895E0E5F1E091839C
S1130280808373836283558344830895092E000C0D
S1130290AA0BBB0B409158015091590160915A012E
S11302A070915B0184179507A607B70740F4209166
S11302B04F012F5F20934F0110924E0107C02091F0
S11302C04E012F5F20934E0110924F0120914E0159
S11302D02A3048F010924E0120915701222319F040
S11302E021502093570120914F012A3048F0109259
S11302F04F01209157012F3018F42F5F209357019D
S11303008093580190935901A0935A01B0935B01D3
S113031008950F931F93CF93DF9300D000D000D0A4
S1130320CDB7DEB729833A834B835C836D837E83A9
S11303308C01000F111F080F191F49815A81602F6A
S113034082E092E00E947D044B815C8161E0600F59
S113035082E092E00E947D044D815E8162E0600F44
S113036082E092E026960FB6F894DEBF0FBECDBFB2
S1130370DF91CF911F910F910C947D04CF93DF9364
S11303804AE050E062EE74E08CE591E00E94AC0338
S113039082E092E00E94B504C0E0D0E08091560172
S11303A090E0C817D90724F58091260190E0C8177A
S11303B0D90769F4209100013091010140910201B3
S11303C05091030160910401709105010CC02091CA
S11303D0500130915101409152015091530160916B
S11303E0540170915501CE010E9489012196D6CF06
S11303F082E092E00E94C704809126018F5F6091A1
S113040056010E94090690932601DF91CF91089529
S1130410CB010E944601E0915701F0E0EE0FFF1F6F
S1130420EA5FFE4F808191819093010180930001E6
S11304300C94BE0185E08093560108952098579846
S113044038985A9A5A98289A5F9A409A089582E05E
S113045084BD85BD98EC97BD80936E0085BB0895DF
S1130460F89487E08093680091E090936B009093F8
S11304706C0090E890936D008BBB789408951F9264
S11304800F920FB60F9211242F938F939F93EF9394
S1130490FF93E0916C01F0916D018081E091720114
S11304A0F091730182FD12C09081809175018F5F7C
S11304B08F7320917601821751F0E0917501F0E07D
S11304C0E45AFE4F958F8093750101C08081FF919E
S11304D0EF919F918F912F910F900FBE0F901F90CE
S11304E018951F920F920FB60F9211242F933F93DA
S11304F04F935F936F937F938F939F93AF93BF9328
S1130500EF93FF938CE591E00E947F05FF91EF91BB
S1130510BF91AF919F918F917F916F915F914F9117
S11305203F912F910F900FBE0F901F901895ECE5FF
S1130530F1E01382128288EE93E0A0E0B0E08483BD
S11305409583A683B7838DE391E09183808385ECC3
S113055090E09587848784EC90E09787868780EC89
S113056090E0918B808B81EC90E0938B828B82EC7A
S113057090E0958B848B86EC90E0978B868B118E24
S1130580128E138E148E0895CF92DF92EF92FF9203
S11305900F931F93CF93DF936C01EB017B01E40E68
S11305A0F51E00E010E0CE15DF0561F06991D6017B
S11305B0ED91FC910190F081E02DC6010995080FA1
S11305C0191FF1CFC801DF91CF911F910F91FF90B7
S11305D0EF90DF90CF9008956115710579F0FB01DC
S11305E001900020E9F73197AF01461B570BDC015E
S11305F0ED91FC910280F381E02D099480E090E07C
S11306000895DC01ED91FC910190F081E02D0994B5
S113061068E271E00C94EC028F929F92AF92BF92C9
S1130620CF92DF92EF92FF920F931F93CF93DF93BA
S1130630CDB7DEB7A1970FB6F894DEBF0FBECDBF1E
S11306406C01142FE52FCB01022F19A2223008F4DC
S11306500AE07E0121E2E20EF11C802E912CA12CF5
S1130660B12C612F7E2FA50194010E941506029FD3
S11306701019112481E0E81AF1081A3010F4105D01
S113068001C0195CF7011083122FE32FCA01232B39
S1130690242B252B31F7B701C6010E94EC02A19649
S11306A00FB6F894DEBF0FBECDBFDF91CF911F917F
S11306B00F91FF90EF90DF90CF90BF90AF909F90FD
S11306C08F900895CF92DF92EF92FF920F931F9332
S11306D0CF93DF93EC016A017B012115310579F495
S11306E0E881F9810190F081E02D642FDF91CF91B1
S11306F01F910F91FF90EF90DF90CF9009942A30D3
S11307003105E9F477FF1AC06DE20E9401038C0100
S113071044275527BA014C195D096E097F092AE05F
S1130720CE010E940C03800F911FDF91CF911F9186
S11307300F91FF90EF90DF90CF9008952AE0B701DA
S1130740A601CE01DF91CF911F910F91FF90EF9001
S1130750DF90CF900C940C030F931F93CF93DF93F0
S1130760EC019A01AB01770F660B770B0E946203D1
S11307708C01CE010E940803800F911FDF91CF915D
S11307801F910F9108951F920F920FB60F9211248B
S11307902F933F938F939F93AF93BF938091FA01CD
S11307A09091FB01A091FC01B091FD013091F90100
S11307B023E0230F2D3720F40196A11DB11D05C0A0
S11307C026E8230F0296A11DB11D2093F901809301
S11307D0FA019093FB01A093FC01B093FD01809179
S11307E0FE019091FF01A0910002B09101020196D7
S11307F0A11DB11D8093FE019093FF01A0930002FF
S1130800B0930102BF91AF919F918F913F912F912E
S11308100F900FBE0F901F901895789484B5826046
S113082084BD84B5816084BD85B5826085BD85B590
S1130830816085BDEEE6F0E0808181608083E1E83F
S1130840F0E0108280818260808380818160808377
S1130850E0E8F0E0808181608083E1EBF0E080817A
S113086084608083E0EBF0E0808181608083EAE74C
S1130870F0E08081846080838081826080838081D5
S1130880816080838081806880831092C100089594
S11308901F920F920FB60F9211242F933F934F93F1
S11308A05F936F937F938F939F93AF93BF93EF93D4
S11308B0FF9380E28093800010926F0010921E02DA
S11308C080911C0290911D02892B31F07894E09163
S11308D01C02F0911D020995FF91EF91BF91AF9118
S11308E09F918F917F916F915F914F913F912F9144
S11308F00F900FBE0F901F9018958FE0861B93E00A
S1130900899FF0011124F695E795EC5FFD4F80FF78
S113091005C08081807F852B80830CC0CA0124E0C0
S1130920969587952A95E1F7808381818F7042950A
S1130930407F482B41830895CB0124E09695879509
S11309402A95E1F7982F262F862F8295807F872B73
S1130950E4E0F2E0908381833396DF0111972C93D6
S113096032E0EC31F307B0F3089560E070E00C94EA
S11309709C04239A259A229A2D9881E08DBD80E5C6
S11309808CBD08958EBD0DB407FEFDCF08951F9351
S1130990CF93DF9310911E02111129C080E280933E
S11309A0800080910302882329F010920302C4E09E
S11309B0D2E003C02D9A2D98FACF88810E94C204F8
S11309C089810E94C2042396FE01319780810E948E
S11309D0C20482E0CC31D80780F381E080931E0208
S11309E090EA90938000B09A80936F0001C011E068
S11309F0812FDF91CF911F9108950F931F93CF9370
S1130A00DF9300D0CDB7DEB78C01219A229A539A96
S1130A102A9A69837A830E94B90469817A81C80118
S1130A200E949C04C8010E94C704E0E8F0E080E250
S1130A30808310926F0010921E02299A2998808355
S1130A40E1E8F0E080E1808381E090E09093890028
S1130A508093880082E090E090938B0080938A00DA
S1130A6080E090E2909387008093860083E28093F5
S1130A70B000A1EBB0E088E08C931092B40083E066
S1130A808093B3008C9181608C938081816080839A
S1130A90C8010F900F90DF91CF911F910F910C948B
S1130AA0C704FC01918D228D892F90E0805C9F4FBB
S1130AB0821B91098F7399270895FC01918D828D72
S1130AC0981731F0828DE80FF11D858D90E008951F
S1130AD08FEF9FEF0895FC01918D828D981761F03F
S1130AE0828DDF01A80FB11D5D968C91928D9F5F61
S1130AF09F73928F90E008958FEF9FEF0895FC010C
S1130B00848DDF01A80FB11DA35ABF4F2C91848D92
S1130B1090E001968F739927848FA689B7892C93C7
S1130B20A089B1898C9180648C93938D848D981362
S1130B3006C00288F389E02D80818F7D808308952B
S1130B40CF93DF93EC01888D8823C9F0EA89FB8970
S1130B50808185FD05C0A889B9898C9186FD0FC067
S1130B600FB607FCF5CF808185FFF2CFA889B9893C
S1130B708C9185FFEDCFCE010E947F05E7CFDF91F9
S1130B80CF910895EF92FF920F931F93CF93DF932A
S1130B90EC0181E0888F9B8D8C8D981305C0E889CA
S1130BA0F989808185FD24C0F62E0B8D10E00F5F3E
S1130BB01F4F0F731127E02E8C8DE8120CC00FB657
S1130BC007FCFACFE889F989808185FFF5CFCE014A
S1130BD00E947F05F1CF8B8DFE01E80FF11DE35AD2
S1130BE0FF4FF0820B8FEA89FB898081806207C006
S1130BF0EE89FF896083E889F98980818064808334
S1130C0081E090E0DF91CF911F910F91FF90EF90E1
S1130C100895991B79E004C0991F961708F0961B54
S1130C20881F7A95C9F780950895A1E21A2EAA1B08
S1130C30BB1BFD010DC0AA1FBB1FEE1FFF1FA21788
S1130C40B307E407F50720F0A21BB30BE40BF50B85
S1130C50661F771F881F991F1A9469F7609570950E
S1130C60809590959B01AC01BD01CF010895EE0FD5
S1110C70FF1F0590F491E02D0994F894FFCF36
S1130C7EE2040000000000004E009C00EA0038016F
S1130C8E8601D40122027102BF020D035B03A90384
S1130C9EF7034504E204FFFF0D0A006E616E00695E
S1130CAE6E66006F7666002E0000000000C205C45A
S10D0CBE0251056B055D05A0050059
S9030000FC
