:100000000C9436000C945E000C945E000C94C000BE
:100010000C9420010C9480010C945E000C945E0002
:100020000C945E000C945E000C945E000C945E00D8
:100030000C945E000C94F4050C9496000C945E00F5
:100040000C946F050C945E000C9422040C945404E0
:100050000C945E000C945E000C945E000C945E00A8
:100060000C945E000C945E00E0027A0411241FBE22
:10007000CFEFD8E0DEBFCDBF11E0A0E0B1E0EEE40D
:10008000FEE002C005900D92A236B107D9F722E03A
:10009000A2E6B1E001C01D92A533B207E1F710E07E
:1000A000C6E3D0E004C02197FE010E941F07C433BD
:1000B000D107C9F70E9460000C9425070C9400003A
:1000C0002FEF81EE94E0215080409040E1F700C096
:1000D00000000E94B90560E070E088E192E00E94B3
:1000E000A9060E94E4022FEF81EE94E021508040A7
:1000F0009040E1F700C000000E94ED020E94F6026D
:1001000080E090E00E94E40140E050E060E070E0B8
:1001100080E090E00E94E70126E040E855E260E0E0
:1001200070E082E791E00E94BD03FFCF1F920F9223
:100130000FB60F9211248F939F93AF93BF9380912B
:10014000630190916401A0916501B09166018C59A1
:100150009F4FAF4FBF4F8093630190936401A09373
:100160006501B09366019BB180E189278BB9BF918E
:10017000AF919F918F910F900FBE0F901F90189588
:100180001F920F920FB60F9211242F933F934F930C
:100190005F936F937F938F939F93AF93BF93EF93EF
:1001A000FF93809162018823B9F186B54091630184
:1001B000509164016091650170916601480F511D75
:1001C000611D711D4093630150936401609365014B
:1001D0007093660182E00E94C90269E271E082E7E1
:1001E00091E00E94E80440916301509164016091A4
:1001F0006501709166012AE030E082E791E00E949B
:100200005D051092630110926401109265011092D5
:1002100066011092620103C081E080936201FF9148
:10022000EF91BF91AF919F918F917F916F915F916E
:100230004F913F912F910F900FBE0F901F901895E7
:100240001F920F920FB60F9211242F933F934F934B
:100250005F936F937F938F939F93AF93BF93EF932E
:10026000FF93809162018823B9F186B540916301C3
:10027000509164016091650170916601480F511DB4
:10028000611D711D4093630150936401609365018A
:100290007093660180E00E94C90269E271E082E722
:1002A00091E00E94E80440916301509164016091E3
:1002B0006501709166012AE030E082E791E00E94DA
:1002C0005D05109263011092640110926501109215
:1002D00066011092620103C081E080936201FF9188
:1002E000EF91BF91AF919F918F917F916F915F91AE
:1002F0004F913F912F910F900FBE0F901F90189527
:100300001F920F920FB60F9211242F933F934F938A
:100310005F936F937F938F939F93AF93BF93EF936D
:10032000FF93809162018823D9F19BB180E18927F5
:100330008BB986B54091630150916401609165016C
:1003400070916601480F511D611D711D409363013D
:1003500050936401609365017093660181E00E948F
:10036000C90269E271E082E791E00E94E8044091ED
:1003700063015091640160916501709166012AE00A
:1003800030E082E791E00E945D05109263011092D7
:10039000640110926501109266011092620103C01F
:1003A00081E080936201FF91EF91BF91AF919F91A6
:1003B0008F917F916F915F914F913F912F910F900E
:1003C0000FBE0F901F901895809328010895E7E6BF
:1003D000F1E091838083738362835583448308951E
:1003E000CF92DF92EF92FF926B017C018091260108
:1003F00020916B0130916C014091690150916A012B
:1004000090E9C91690EDD90693E0E906F104C8F425
:10041000882319F0815080932601223E84E038071A
:1004200030F420533F4F30936C0120936B01411502
:10043000510511F14853514050936A0140936901AD
:100440001BC08F3030F48C5F813108F080E18093E5
:100450002601423E94E0590730F4485C5E4F5093C9
:100460006A01409369012115310531F0205D3109A0
:1004700030936C0120936B0188E192E00E94730637
:10048000C0926E01D0926F01E0927001F092710102
:10049000FF90EF90DF90CF9008950F931F93CF932D
:1004A000DF9300D000D000D0CDB7DEB729833A83E8
:1004B0004B835C836D837E838C01000F111F080FBB
:1004C000191F49815A81602F88E192E00E94290614
:1004D0004B815C8161E0600F88E192E00E94290617
:1004E0004D815E8162E0600F88E192E026960FB652
:1004F000F894DEBF0FBECDBFDF91CF911F910F915A
:100500000C942906CF93DF9380932701833038F032
:1005100082EE94E0909368018093670104C010928A
:1005200068011092670188E192E00E946106C0E0D4
:10053000D0E080916D0190E0C817D90724F5809133
:10054000270190E0C817D90769F420910001309184
:1005500001014091020150910301609104017091E9
:1005600005010CC02091670130916801409169013B
:1005700050916A0160916B0170916C01CE010E94F3
:100580004D022196D6CF88E192E0DF91CF910C9475
:100590007306CF93C82FCB01BA010E94F001E091FE
:1005A0002601F0E0EE0FFF1FEA5FFE4F8081918190
:1005B00090930101809300018C2FCF910C948202C3
:1005C00083E080936D0108952098579838985C9A3D
:1005D0005C98289A5F9A409A089582E084BD85BD10
:1005E00098EC97BD80936E0085BB0895F89487E0E2
:1005F0008093680091E090936B0090936C0090E87A
:1006000090936D008BBB78940895FC01918D228DA1
:10061000892F90E0805C9F4F821B91098F739927EF
:100620000895FC01918D828D981731F0828DE80F2D
:10063000F11D858D90E008958FEF9FEF0895FC01E7
:10064000918D828D981761F0828DDF01A80FB11D09
:100650005D968C91928D9F5F9F73928F90E008952D
:100660008FEF9FEF0895FC01848DDF01A80FB11D6E
:10067000A35ABF4F2C91848D90E001968F739927D8
:10068000848FA689B7892C93A089B1898C918064C5
:100690008C93938D848D981306C00288F389E02D86
:1006A00080818F7D80830895CF93DF93EC01888DC7
:1006B0008823C9F0EA89FB89808185FD05C0A88966
:1006C000B9898C9186FD0FC00FB607FCF5CF8081EC
:1006D00085FFF2CFA889B9898C9185FFEDCFCE0136
:1006E0000E943303E7CFDF91CF910895EF92FF92FD
:1006F0000F931F93CF93DF93EC0181E0888F9B8D45
:100700008C8D981305C0E889F989808185FD24C006
:10071000F62E0B8D10E00F5F1F4F0F731127E02E89
:100720008C8DE8120CC00FB607FCFACFE889F98966
:10073000808185FFF5CFCE010E943303F1CF8B8DF1
:10074000FE01E80FF11DE35AFF4FF0820B8FEA899B
:10075000FB898081806207C0EE89FF896083E88918
:10076000F98980818064808381E090E0DF91CF917E
:100770001F910F91FF90EF900895CF92DF92EF922B
:10078000FF921F93CF93DF93EC016A017B01122F3D
:10079000E889F98982E080834115514E6105710530
:1007A000B1F060E079E08DE390E0A70196010E944E
:1007B000FD06DA01C9010197A109B109B695A7950E
:1007C00097958795AC01411580E15807A8F0E88915
:1007D000F989108260E874E88EE190E0A701960143
:1007E0000E94FD06BA01A901415051096109710930
:1007F0007695679557954795EC85FD855083EE85F1
:10080000FF854083188EEC89FD891083EA89FB8976
:10081000808180618083EA89FB8980818860808310
:10082000EA89FB89808180688083EA89FB898081ED
:100830008F7D8083DF91CF911F91FF90EF90DF90AC
:10084000CF9008951F920F920FB60F9211242F93FD
:100850008F939F93EF93FF93E0918201F091830137
:100860008081E0918801F091890182FD12C0908120
:1008700080918B018F5F8F7320918C01821751F0D3
:10088000E0918B01F0E0EE58FE4F958F80938B0145
:1008900001C08081FF91EF919F918F912F910F90D7
:1008A0000FBE0F901F9018951F920F920FB60F92C8
:1008B00011242F933F934F935F936F937F938F9365
:1008C0009F93AF93BF93EF93FF9382E791E00E94D2
:1008D0003303FF91EF91BF91AF919F918F917F91E2
:1008E0006F915F914F913F912F910F900FBE0F909D
:1008F0001F901895E2E7F1E01382128288EE93E0F0
:10090000A0E0B0E084839583A683B78384E491E07C
:100910009183808385EC90E09587848784EC90E0D8
:100920009787868780EC90E0918B808B81EC90E0BC
:10093000938B828B82EC90E0958B848B86EC90E09D
:10094000978B868B118E128E138E148E0895CF92F4
:10095000DF92EF92FF920F931F93CF93DF936C017F
:10096000EB017B01E40EF51E00E010E0CE15DF0583
:1009700061F06991D601ED91FC910190F081E02D3B
:10098000C6010995080F191FF1CFC801DF91CF915A
:100990001F910F91FF90EF90DF90CF900895611518
:1009A000710579F0FB0101900020E9F73197AF0163
:1009B000461B570BDC01ED91FC910280F381E02D89
:1009C000099480E090E0089560E571E00C94CF0414
:1009D0000F931F93CF93DF93EC010E94CF048C0100
:1009E000CE010E94E404800F911FDF91CF911F91EF
:1009F0000F9108958F929F92AF92BF92CF92DF9204
:100A0000EF92FF920F931F93CF93DF93CDB7DEB793
:100A1000A1970FB6F894DEBF0FBECDBF6C01142FA7
:100A2000E52FCB01022F19A2223008F40AE07E0143
:100A300021E2E20EF11C802E912CA12CB12C612F11
:100A40007E2FA50194010E94FD06029F101911241A
:100A500081E0E81AF1081A3010F4105D01C0195C49
:100A6000F7011083122FE32FCA01232B242B252BF0
:100A700031F7B701C6010E94CF04A1960FB6F894D2
:100A8000DEBF0FBECDBFDF91CF911F910F91FF90C1
:100A9000EF90DF90CF90BF90AF909F908F90089590
:100AA0002115310541F4DC01ED91FC910190F081BB
:100AB000E02D642F09940C94FA040F931F93CF93A5
:100AC000DF93EC010E9450058C01CE010E94E404EA
:100AD000800F911FDF91CF911F910F9108951F9269
:100AE0000F920FB60F9211242F933F938F939F93E2
:100AF000AF93BF938091100290911102A0911202C6
:100B0000B091130230910F0223E0230F2D3720F410
:100B10000196A11DB11D05C026E8230F0296A11D57
:100B2000B11D20930F028093100290931102A093A5
:100B30001202B09313028091140290911502A091B9
:100B40001602B09117020196A11DB11D80931402E7
:100B500090931502A0931602B0931702BF91AF9124
:100B60009F918F913F912F910F900FBE0F901F90EB
:100B70001895789484B5826084BD84B5816084BD05
:100B800085B5826085BD85B5816085BDEEE6F0E006
:100B9000808181608083E1E8F0E010828081826062
:100BA0008083808181608083E0E8F0E080818160E3
:100BB0008083E1EBF0E0808184608083E0EBF0E013
:100BC000808181608083EAE7F0E0808184608083B7
:100BD0008081826080838081816080838081806861
:100BE00080831092C10008951F920F920FB60F924A
:100BF00011242F933F934F935F936F937F938F9322
:100C00009F93AF93BF93EF93FF9380E28093800015
:100C100010926F0010923402809132029091330250
:100C2000892B31F07894E0913202F09133020995EA
:100C3000FF91EF91BF91AF919F918F917F916F91B4
:100C40005F914F913F912F910F900FBE0F901F908A
:100C500018958FE0861B93E0899FF0011124F6958B
:100C6000E795E65EFD4F80FF05C08081807F852B84
:100C700080830CC0CA0124E0969587952A95E1F7F8
:100C8000808381818F704295407F482B41830895F6
:100C9000CB0124E0969587952A95E1F7982F262F8A
:100CA000862F8295807F872BEAE1F2E09083818313
:100CB0003396DF0111972C9332E0E233F307B0F360
:100CC000089560E070E00C944806239A259A229AD1
:100CD0002D9881E08DBD80E58CBD08958EBD0DB44D
:100CE00007FEFDCF08951F93CF93DF931091340239
:100CF000111129C080E2809380008091190288231D
:100D000029F010921902CAE1D2E003C02D9A2D9861
:100D1000FACF88810E946E0689810E946E06239612
:100D2000FE01319780810E946E0682E0C233D807AF
:100D300080F381E08093340290EA90938000B09A2F
:100D400080936F0001C011E0812FDF91CF911F913F
:100D500008950F931F93CF93DF9300D0CDB7DEB7E5
:100D60008C01219A229A539A2A9A69837A830E9443
:100D7000650669817A81C8010E944806C8010E94FF
:100D80007306E0E8F0E080E2808310926F0010923A
:100D90003402299A29988083E1E8F0E080E1808399
:100DA00081E090E0909389008093880082E090E059
:100DB00090938B0080938A0080E090E2909387006C
:100DC0008093860083E28093B000A1EBB0E088E0DE
:100DD0008C931092B40083E08093B3008C91816077
:100DE0008C93808181608083C8010F900F90DF9188
:100DF000CF911F910F910C947306A1E21A2EAA1B9A
:100E0000BB1BFD010DC0AA1FBB1FEE1FFF1FA217BA
:100E1000B307E407F50720F0A21BB30BE40BF50BB7
:100E2000661F771F881F991F1A9469F76095709540
:100E3000809590959B01AC01BD01CF010895EE0F07
:0E0E4000FF1F0590F491E02D0994F894FFCF68
:100E4E00E204000000000000EA00EA00EA00EA0006
:100E5E00EA0038018601D401220271020D03F70364
:100E6E00E204E204E2040FFFFF74696D652072650F
:100E7E006164696E6720696E206D732069733A0034
:100E8E00000000007603A70405031F03110354039B
:100E9E000D0A006E616E00696E66006F7666002E3A
:020EAE00000042
:00000001FF
