:100000000C9436000C945E000C945E000C94CE00B0
:100010000C9401010C9434010C945E000C945E006D
:100020000C945E000C945E000C945E000C945E00D8
:100030000C945E000C9420040C9496000C945E00CA
:100040000C949B030C945E000C9417020C944902D0
:100050000C945E000C945E000C945E000C945E00A8
:100060000C945E000C945E00F2016F0211241FBE1E
:10007000CFEFD8E0DEBFCDBF11E0A0E0B1E0EEE20F
:10008000FCE002C005900D92AA32B107D9F721E039
:10009000AAE2B1E001C01D92A83FB207E1F710E06B
:1000A000C6E3D0E004C02197FE010E940F06C433CE
:1000B000D107C9F70E9460000C9415060C9400004B
:1000C0002FEF81EE94E0215080409040E1F700C096
:1000D00000000E94E50360E070E08BED91E00E947B
:1000E000D5040E94F6012FEF81EE94E0215080406C
:1000F0009040E1F700C000000E94FF010E9408024A
:1001000080E090E00E94670143E550E060E070E02D
:1001100080E090E00E946A012FEF89E698E121508B
:1001200080409040E1F700C00000F6CF1F920F9290
:100130000FB60F9211242F938F939F93AF93BF937A
:1001400080912A0190912B01A0912C01B0912D0159
:100150008C599F4FAF4FBF4F813422E492072FE05D
:10016000A207B10548F480932A0190932B01A09334
:100170002C01B0932D0108C010922A0110922B017E
:1001800010922C0110922D01BF91AF919F918F91F0
:100190002F910F900FBE0F901F9018951F920F92E6
:1001A0000FB60F9211242F933F934F935F936F934A
:1001B0007F938F939F93AF93BF93EF93FF93F894A5
:1001C0009BB180E189278BB90E94A80186B5109266
:1001D0002A0110922B0110922C0110922D0178947B
:1001E000FF91EF91BF91AF919F918F917F916F910F
:1001F0005F914F913F912F910F900FBE0F901F90E5
:1002000018951F920F920FB60F9211242F933F93C0
:100210004F935F936F937F938F939F93AF93BF930E
:10022000EF93FF93F8949BB180E189278BB90E94EB
:10023000A80186B510922A0110922B0110922C0170
:1002400010922D017894FF91EF91BF91AF919F9102
:100250008F917F916F915F914F913F912F910F906F
:100260000FBE0F901F9018951F920F920FB60F920E
:1002700011242F933F934F935F936F937F938F93AB
:100280009F93AF93BF93EF93FF93F8949BB180E15B
:1002900089278BB90E94A80186B510922A01109275
:1002A0002B0110922C0110922D017894FF91EF9167
:1002B000BF91AF919F918F917F916F915F914F917E
:1002C0003F912F910F900FBE0F901F901895809324
:1002D00007010895EEE2F1E09183808373836283E6
:1002E0005583448308950F931F93CF93DF9300D0DA
:1002F00000D000D0CDB7DEB729833A834B835C832F
:100300006D837E838C01000F111F080F191F498117
:100310005A81602F8BED91E00E9455044B815C81E6
:1003200061E0600F8BED91E00E9455044D815E818C
:1003300062E0600F8BED91E026960FB6F894DEBF79
:100340000FBECDBFDF91CF911F910F910C9455043B
:10035000CF93DF934AE050E062EE74E085E391E0F2
:100360000E9484038BED91E00E948D04C0E0D0E0F8
:100370008091340190E0C817D90724F580910601D7
:1003800090E0C817D90769F420910001309101016C
:1003900040910201509103016091040170910501A7
:1003A0000CC020912E0130912F01409130015091CD
:1003B00031016091320170913301CE010E947301CD
:1003C0002196D6CF8BED91E00E949F04809106018B
:1003D0008F5F609134010E94E10590930601DF91E7
:1003E000CF91089583E08093340108952098579821
:1003F00038985C9A5C98289A5F9A409A089582E0AF
:1004000084BD85BD98EC97BD80936E0085BB089533
:10041000F89487E08093680091E090936B0090934C
:100420006C0090E890936D008BBB789408951F92B8
:100430000F920FB60F9211242F938F939F93EF93E8
:10044000FF93E0914501F09146018081E0914B01DD
:10045000F0914C0182FD12C0908180914E018F5F1E
:100460008F7320914F01821751F0E0914E01F0E01F
:10047000EB5CFE4F958F80934E0101C08081FF9110
:10048000EF919F918F912F910F900FBE0F901F9022
:1004900018951F920F920FB60F9211242F933F932E
:1004A0004F935F936F937F938F939F93AF93BF937C
:1004B000EF93FF9385E391E00E945705FF91EF9141
:1004C000BF91AF919F918F917F916F915F914F916C
:1004D0003F912F910F900FBE0F901F901895E5E35D
:1004E000F1E01382128288EE93E0A0E0B0E0848312
:1004F0009583A683B7838DE191E09183808385EC1A
:1005000090E09587848784EC90E09787868780ECDD
:1005100090E0918B808B81EC90E0938B828B82ECCE
:1005200090E0958B848B86EC90E0978B868B118E78
:10053000128E138E148E0895CF92DF92EF92FF9257
:100540000F931F93CF93DF936C01EB017B01E40EBC
:10055000F51E00E010E0CE15DF0561F06991D601CF
:10056000ED91FC910190F081E02DC6010995080FF5
:10057000191FF1CFC801DF91CF911F910F91FF900B
:10058000EF90DF90CF9008956115710579F0FB0130
:1005900001900020E9F73197AF01461B570BDC01B2
:1005A000ED91FC910280F381E02D099480E090E0D0
:1005B0000895DC01ED91FC910190F081E02D09940A
:1005C00068E071E00C94C4028F929F92AF92BF9248
:1005D000CF92DF92EF92FF920F931F93CF93DF930F
:1005E000CDB7DEB7A1970FB6F894DEBF0FBECDBF73
:1005F0006C01142FE52FCB01022F19A2223008F431
:100600000AE07E0121E2E20EF11C802E912CA12C49
:10061000B12C612F7E2FA50194010E94ED05029F50
:100620001019112481E0E81AF1081A3010F4105D55
:1006300001C0195CF7011083122FE32FCA01232B8D
:10064000242B252B31F7B701C6010E94C402A196C5
:100650000FB6F894DEBF0FBECDBFDF91CF911F91D3
:100660000F91FF90EF90DF90CF90BF90AF909F9051
:100670008F900895CF92DF92EF92FF920F931F9386
:10068000CF93DF93EC016A017B012115310579F4E9
:10069000E881F9810190F081E02D642FDF91CF9105
:1006A0001F910F91FF90EF90DF90CF9009942A3027
:1006B0003105E9F477FF1AC06DE20E94D9028C017E
:1006C00044275527BA014C195D096E097F092AE0B4
:1006D000CE010E94E402800F911FDF91CF911F9104
:1006E0000F91FF90EF90DF90CF9008952AE0B7012F
:1006F000A601CE01DF91CF911F910F91FF90EF9056
:10070000DF90CF900C94E4020F931F93CF93DF936D
:10071000EC019A01AB01770F660B770B0E943A034D
:100720008C01CE010E94E002800F911FDF91CF91DA
:100730001F910F9108951F920F920FB60F921124DF
:100740002F933F938F939F93AF93BF938091D30148
:100750009091D401A091D501B091D6013091D201F0
:1007600023E0230F2D3720F40196A11DB11D05C0F4
:1007700026E8230F0296A11DB11D2093D20180937C
:10078000D3019093D401A093D501B093D601809169
:10079000D7019091D801A091D901B091DA010196C9
:1007A000A11DB11D8093D7019093D801A093D901C9
:1007B000B093DA01BF91AF919F918F913F912F91AB
:1007C0000F900FBE0F901F901895789484B582609B
:1007D00084BD84B5816084BD85B5826085BD85B5E5
:1007E000816085BDEEE6F0E0808181608083E1E894
:1007F000F0E01082808182608083808181608083CC
:10080000E0E8F0E0808181608083E1EBF0E08081CE
:1008100084608083E0EBF0E0808181608083EAE7A0
:10082000F0E0808184608083808182608083808129
:10083000816080838081806880831092C1000895E8
:100840001F920F920FB60F9211242F933F934F9345
:100850005F936F937F938F939F93AF93BF93EF9328
:10086000FF9380E28093800010926F001092F70156
:100870008091F5019091F601892B31F07894E09107
:10088000F501F091F6010995FF91EF91BF91AF91BC
:100890009F918F917F916F915F914F913F912F9198
:1008A0000F900FBE0F901F9018958FE0861B93E05E
:1008B000899FF0011124F695E795E352FE4F80FFE2
:1008C00005C08081807F852B80830CC0CA0124E015
:1008D000969587952A95E1F7808381818F7042955F
:1008E000407F482B41830895CB0124E0969587955E
:1008F0002A95E1F7982F262F862F8295807F872BC8
:10090000EDEDF1E0908381833396DF0111972C9315
:1009100031E0E53FF307B0F3089560E070E00C9438
:100920007404239A259A229A2D9881E08DBD80E542
:100930008CBD08958EBD0DB407FEFDCF08951F93A5
:10094000CF93DF931091F701111129C080E28093BA
:1009500080008091DC01882329F01092DC01CDED2C
:10096000D1E003C02D9A2D98FACF88810E949A0475
:1009700089810E949A042396FE01319780810E940A
:100980009A0481E0C53FD80780F381E08093F701A6
:1009900090EA90938000B09A80936F0001C011E0BC
:1009A000812FDF91CF911F9108950F931F93CF93C4
:1009B000DF9300D0CDB7DEB78C01219A229A539AEB
:1009C0002A9A69837A830E94910469817A81C80195
:1009D0000E947404C8010E949F04E0E8F0E080E2F5
:1009E000808310926F001092F701299A29988083D2
:1009F000E1E8F0E080E1808381E090E0909389007D
:100A00008093880082E090E090938B0080938A002E
:100A100080E090E2909387008093860083E2809349
:100A2000B000A1EBB0E088E08C931092B40083E0BA
:100A30008093B3008C9181608C93808181608083EE
:100A4000C8010F900F90DF91CF911F910F910C94DF
:100A50009F04FC01918D228D892F90E0805C9F4F37
:100A6000821B91098F7399270895FC01918D828DC6
:100A7000981731F0828DE80FF11D858D90E0089573
:100A80008FEF9FEF0895FC01918D828D981761F093
:100A9000828DDF01A80FB11D5D968C91928D9F5FB5
:100AA0009F73928F90E008958FEF9FEF0895FC0160
:100AB000848DDF01A80FB11DA35ABF4F2C91848DE7
:100AC00090E001968F739927848FA689B7892C931C
:100AD000A089B1898C9180648C93938D848D9813B7
:100AE00006C00288F389E02D80818F7D8083089580
:100AF000CF93DF93EC01888D8823C9F0EA89FB89C5
:100B0000808185FD05C0A889B9898C9186FD0FC0BB
:100B10000FB607FCF5CF808185FFF2CFA889B98990
:100B20008C9185FFEDCFCE010E945705E7CFDF9175
:100B3000CF910895EF92FF920F931F93CF93DF937E
:100B4000EC0181E0888F9B8D8C8D981305C0E8891E
:100B5000F989808185FD24C0F62E0B8D10E00F5F92
:100B60001F4F0F731127E02E8C8DE8120CC00FB6AB
:100B700007FCFACFE889F989808185FFF5CFCE019E
:100B80000E945705F1CF8B8DFE01E80FF11DE35A4E
:100B9000FF4FF0820B8FEA89FB898081806207C05A
:100BA000EE89FF896083E889F98980818064808388
:100BB00081E090E0DF91CF911F910F91FF90EF9036
:100BC0000895991B79E004C0991F961708F0961BA9
:100BD000881F7A95C9F780950895A1E21A2EAA1B5D
:100BE000BB1BFD010DC0AA1FBB1FEE1FFF1FA217DD
:100BF000B307E407F50720F0A21BB30BE40BF50BDA
:100C0000661F771F881F991F1A9469F76095709562
:100C1000809590959B01AC01BD01CF010895EE0F29
:0E0C2000FF1F0590F491E02D0994F894FFCF8A
:100C2E00E20400000000FFFF0D0A006E616E006915
:100C3E006E66006F7666002E00000000009A059C1E
:0A0C4E00022905430535057805006D
:00000001FF
